:020000040800F2
:10100000708100204911000809620008E15C0008B5
:101010007D600008A9270008EBA000080000000080
:10102000000000000000000000000000A97500089A
:101030008F2A0008000000003D640008A995000800
:10104000631100086311000863110008957500081A
:101050006311000863110008953D00086311000842
:101060006311000863110008631100086311000890
:101070006311000863110008631100086311000880
:101080006311000863110008631100086311000870
:101090006311000863110008631100086311000860
:1010A0006311000863110008631100086311000850
:1010B0009196000835970008631100086311000835
:1010C0006311000863110008631100086311000830
:1010D00063110008099C00087D9D0008C19E00085E
:1010E000C93D00082D750008631100086311000850
:1010F0006311000863110008631100086311000800
:1011000063110008631100086311000863110008EF
:10111000819900088D9A0008631100086311000886
:1011200063110008631100086311000863110008CF
:10113000DFF80CD000F016FB00480047C1C60008DD
:10114000708100207047000006488047064800472D
:10115000FEE7FEE7FEE7FEE7FEE7FEE7FEE7FEE767
:10116000FEE7FEE7C9950008311100082DE9F05FA0
:101170000546002092469B46884606468146402406
:101180001BE0284641464746224600F01AFA5346DD
:101190005A46C01A914110D311461846224600F013
:1011A00001FA2D1A67EB01084F4622460120002163
:1011B00000F0F8F917EB00094E41201EA4F10104DC
:1011C000DFDC484631462A464346BDE8F09F40EA08
:1011D00001039B0703D009E008C9121F08C0042AB5
:1011E000FAD203E011F8013B00F8013B521EF9D29C
:1011F0007047D2B201E000F8012B491EFBD27047C4
:101200000022F6E710B513460A4604461946FFF7D2
:10121000F0FF204610BD421C10F8011B0029FBD135
:10122000801A704770B5064609F0DAF8046805467A
:101230000A220021304600F0E6F92C6070BD2DE94D
:10124000FE4F804681EA0300C00F0C46009021F05B
:10125000004123F00045B8EB0200A94105D2404609
:10126000214690461C460B46024623F000401043A0
:1012700004D14046214603B0BDE8F08F270DC7F3E7
:101280000A00C3F30A510290401A0190402866DA1E
:10129000C3F3130040F4801B0098924620B1002352
:1012A000D2EB030A63EB0B0B01985946C0F14002E5
:1012B000504600F077F906460D4650465946019AC9
:1012C00000F08FF910EB08006141002487EA115209
:1012D00084EAE7731A433BD0009A3AB3019A012A91
:1012E0004FEA075210DC001B61EB02014FF0004295
:1012F00002EA0752CDE90042001C41F58011324656
:101300002B4600F0C5F9B6E7001B61EB0201001C9B
:1013100041F5801300185B412018A2F5001747EB38
:10132000030140EAD570B6196D4111E06D084FEA2E
:10133000360645EAC0754FEA0752001B61EB020111
:10134000001C41F5801149084FEA30000019514155
:1013500032462B4603B0BDE8F04F00F08CB9009840
:10136000012240000023D0EB020263EBE0730098FF
:1013700021464FEAE074B8EB000061EB0401E9E7B5
:1013800083F000435BE781F0004158E72DE9FE4F11
:1013900081EA030404F0004421F0004100944FF07E
:1013A000000B23F0004350EA010402D052EA030488
:1013B00004D10020014603B0BDE8F08FC3F30A5406
:1013C000C1F30A552C44A4F2F3340194A0FB025457
:1013D000C1F3130141F48011C3F3130343F48013E9
:1013E00001FB024400FB034E840A970A44EA81543D
:1013F00047EA8357A4FB076802958D0A05FB07851A
:101400004FEA932C04FB0C542705029D4FEA065823
:1014100047EA1637B5EB08056EEB070C870E920E00
:1014200047EA811742EA8312A7FB0201B6EB0B01E0
:1014300064EB00042B0D43EA0C335E1844EB1C50A4
:10144000DA465146E7FB0201C5F313044FEA0B33BA
:1014500043EA14534FEA0432019C43EA0603A4F121
:101460000C040294009CCDE900B400F011F9A2E74D
:101470002DE9F04D81EA030404F0004B21F0004512
:1014800014464FF0000A23F0004150EA050220D034
:1014900054EA01021DD0C5F30A570246C5F31303EF
:1014A000C1F31300C1F30A5640F4801543F48013CE
:1014B000A7EB0608101BD64608F2FD3873EB0500B3
:1014C00002D308F1010801E092185B41B8F1000F66
:1014D00003DA00200146BDE8F08D00204FF48011B2
:1014E000064684460EE0171B73EB050705D3121B57
:1014F00063EB050306434CEA010C49084FEA300050
:1015000092185B4150EA0107EDD152EA030012D074
:1015100082EA040083EA0501084303D100224FF068
:10152000004308E0101BAB4102D20122002302E07D
:101530006FF0010253101AEB06004CEB085110EB50
:101540000A0041EB0B01BDE8F04D00F094B800003B
:1015500030B5002904DB4FF00044404264EB010148
:10156000002B04DB4FF00044524264EB030399422A
:1015700008BF904230BD000030B50B460146002048
:101580002022012409E021FA02F59D4205D303FA45
:1015900002F5491B04FA02F52844151EA2F10102C6
:1015A000F1DC30BD202A04DB203A00FA02F10020F1
:1015B00070479140C2F1200320FA03F31943904091
:1015C0007047202A04DB203A21FA02F000217047FC
:1015D00021FA02F3D040C2F120029140084319469B
:1015E0007047202A06DBCB17203A41FA02F043EA83
:1015F000E07306E041FA02F3D040C2F120029140CC
:101600000843194670472DE9F04791460F4680463A
:101610000446002614F8015B2DB100F0B5F800680F
:10162000405DC007F6D12B2D02D02D2D18D0641EA1
:101630004A463946204600F0ABF827B13968A14246
:1016400001D1C7F8008071054FF002040BD540426C
:10165000002803DD08F0C4FE0460A007BDE8F087A1
:1016600046F48066E4E70028F8DA08F0B9FE046082
:101670006FF00040F2E710B5002B08DA401C41F192
:10168000000192185B411A4301D120F0010010BD06
:101690002DE9F04D92469B4611B1B1FA81F202E07C
:1016A000B0FA80F220329046FFF77CFF04460F46E6
:1016B00040EA0A0041EA0B0153465A46084303D167
:1016C00020463946BDE8F08D114653EA010015D099
:1016D000C8F140025046FFF774FF05460E465046DB
:1016E00059464246FFF75EFF084301D0012000E063
:1016F0000020054346EAE0762C4337430A984FEA38
:101700004453A0EB08004FEAD4240A304FF0000203
:1017100044EA47544FEAD72502D500200146D1E7D5
:10172000010510196941DDE9084500196941BDE865
:10173000F04DA0E7C1F30A52C1F3130140F2FF33A9
:1017400041F480119A4202DA00200146704740F2CB
:1017500033439A42A2F2334202DC5242FFF731BFD6
:10176000FFF720BF064C074D06E0E06840F001039C
:1017700094E8070098471034AC42F6D3FFF7DCFC3E
:10178000B8F70008D8F7000800487047B4F7000819
:101790002DE9F05F82460078002715468B460AF156
:1017A0000104B946302801D09DB113E014F8010BB3
:1017B0000127782803D0582801D045B10AE00DB19F
:1017C000102D07D10027102514F8010B02E0082581
:1017D00000E00A250026B0460EE005FB080005FBE8
:1017E00006F1012701EB10461FFA80F8B6F5803F9D
:1017F00000D3B94614F8010B294600F018F8002868
:10180000EBDABBF1000F05D00FB1641E00E05446C7
:10181000CBF80040B9F1000F06D008F0E1FD02213D
:101820000160C81EBDE8F09F48EA0640FAE73A2882
:1018300000D2303820F02002412A01D3A2F1370033
:10184000884201D34FF0FF30704770B501EB0204BE
:1018500010F8015B15F0070301D110F8013B2A11C4
:1018600006D110F8012B03E010F8016B01F8016BB1
:101870005B1EF9D12B0705D40023521E0FD401F8AB
:10188000013BFAE710F8013B02F10202A1EB03036E
:1018900003E013F8015B01F8015B521EF9D5A14288
:1018A000D6D3002070BD000008B50121084605F020
:1018B000C9FD01214FF4047005F0DCFD1020ADF8E6
:1018C000000000208DF803006946034802F0EAFB9F
:1018D000BDE8084000F002B80010014070B52C4E81
:1018E00090B0304601F044F82A4800902A4801A9F7
:1018F0000024012531C18020CDE90440400006903C
:1019000080000790202008900002CDE90904694674
:10191000304601F09FF80121304601F01DF88DF8A6
:1019200030500B948DF831504FF46020CDE90D0408
:10193000184C8DF83C504C3C0BA9204600F050F858
:101940004FF4404005F074FD052301220E2120468E
:1019500000F06AF80121204600F02AF80121204613
:1019600000F01CF8204600F099F8204600F031F80D
:101970000028FAD1204600F0A0F8204600F022F816
:101980000028FAD10121204600F08DF810B070BD7A
:10199000080002404C2401404004002000298168D6
:1019A00002D041F0010101E021F0010181607047A6
:1019B0000029816802D041F4807101E021F4807136
:1019C00081607047014600208968490700D50120E1
:1019D0007047014600208968090700D5012070473B
:1019E00010B542680E4B0C791A400B6842EA04228B
:1019F0001343436083680B4A1340D1E902422243F8
:101A00004C7943EA44031A438260C26A097C22F497
:101A10007002491EC9B242EA0151C16210BD000004
:101A2000FFFEF0FFFDF7F1FF70B5072409290AD981
:101A3000C568A1F10A0606EB4606B440A543B340CB
:101A40001D43C56007E0056901EB4106B440A543AD
:101A5000B3401D4305611F23072A09D2446B521E60
:101A600002EB820293409C4391400C43446370BD5F
:101A70000D2A09D2046BD21F02EB820293409C43D1
:101A800091400C43046370BDC46A0D3A02EB8202BC
:101A900093409C4391400C43C46270BD816841F007
:101AA0000801816070470029816802D041F4A001DB
:101AB00001E021F4A00181607047816841F00401D8
:101AC00081607047392806D2C0EBC001044AC1EBDF
:101AD00080110A4400E003A2014605A008F04ABCB8
:101AE000DEE400084552524F52205354414745000E
:101AF00041545F4553505F537461676528256429DD
:101B00003A25730D0A00000010B504F085F903486A
:101B1000012101700221417010BD00000406002067
:101B20002DE9F05FE14C0026204604F11005D0F8C5
:101B30000CA02968007994F80180401C4FF0170B25
:101B40004FF00E0E21F0800721F00102C0B221F407
:101B5000807C21F01009B8F11E0F42D2DFE808F0B6
:101B600041290F1A1F41303B4A556974909AA7AE1C
:101B7000BDD3DCF7FFF3F2F1F0EFEEEDECEB4FF459
:101B80008041CB4802F018FB4FF47A7009F0A6FBB5
:101B9000032033E1BAF1000F23D104202EE14FF4EA
:101BA0008041C34802F00AFB40F6B83009F096FBCA
:101BB00082E0480702D4BAF1000F12D106200EE1EC
:101BC00027F00100286000F0C7FC4FF47A7009F09C
:101BD00085FB072012E1CA0705D008206070267136
:101BE0002F60BDE8F09F0907FBD5207105281CD8A0
:101BF000062003E127F00100286000F05BFD4FF4B0
:101C00007A7009F06BFB0920F8E00A0608D5CA07CC
:101C100006D00A206070267127F001002860E0E7F6
:101C20000907DED52071032801D90220D7E008205A
:101C3000E4E02CF00100286000F044FD4FF4FA606D
:101C400009F04CFB0B20D9E0CA0512D5CA0710D009
:101C50002CF00100286097480146027D96A000F014
:101C600039FD012801D00C20B9E00F2060702671E9
:101C7000CEE00907B5D52071032867D80A20BDE05A
:101C80008DA02A6000F04EFD41F2883009F026FB5D
:101C90000D20B3E0C90702D084F801E02A6029785A
:101CA00009079ED5207103287AD80C20A6E021F0E0
:101CB0000400286000F026FD01209FE021F4007060
:101CC00020F0010028607FA1824808F0F5F94FF468
:101CD000FA6009F003FB102090E0CA070CD08805D9
:101CE00006D51320607041F2883009F0F7FA01E060
:101CF000112074E0267174E7090790D5207103283C
:101D00004ED80F207AE02A6000F004FD41F28830BE
:101D100009F0E4FA122071E0CB0704D084F801E066
:101D200026712A605DE70907E5D5207105283FF691
:101D30007CAF112062E0A9E096E086E076E05FE00B
:101D40004FE032E021E017E009E000E028E02A60FF
:101D500000F0BEFB4FF47A6009F0C0FA0AE0C90750
:101D600002D0152161702A6029780907C3D5207136
:101D7000032815D8142041E02A6000F081FB4FF4BD
:101D80007A6009F0ABFA162038E0C90702D084F86F
:101D900001B02A6029780907ADD52071032802D93E
:101DA000267102202AE0152028E0A078012801D021
:101DB00040B10DE03F485C3090F80101012807D1A7
:101DC0001A200CE03B485C3090F82401012805D033
:101DD000080790D52671C5F8009025E01C2060709A
:101DE00088E73DA13B4808F067F9286820F011001A
:101DF00028604FF47A6009F071FA19206070F0E6FB
:101E0000CA060BD5CA0709D0C5F8009084F801B0FE
:101E1000BDE8F05F41F2883009F060BA0907EED5FD
:101E2000207103283FF601AF1820E7E71B202A6046
:101E3000607042F2107009F051FA1E485C3090F860
:101E40000011BDE8F05F00F023BBCA0705D0194AB6
:101E50005C3282F8016184F801B00907CFD52071A6
:101E60000328DFD81A20C9E71D202A6060704FF4CC
:101E7000FA6009F033FA0F481B495C3090F81C21D6
:101E8000D0F82001BDE8F05F00F0F0BBCA0705D034
:101E9000084A5C3282F8246184F801B00907AED5A3
:101EA00020710328BED81C20A8E7000004060020EB
:101EB000000C0140E05F00204D41524B5F53533214
:101EC0000000000041542B414456494E5445523FB6
:101ED0000D0A0000004C004041542B434F4E535418
:101EE000553F0D0A000000003E6100202DE9F74F2C
:101EF000F84C0026214604F1100991F805B094F839
:101F000000800BF1010101F0FF0A0125D9F800C0A2
:101F1000A0F14107A0F16102A0F13001B8F1890FF1
:101F20007DD04DDC4B46B8F1760F1B6843F0100EA8
:101F300076D035DCB8F16C0F73D025DCB8F1050F25
:101F400070D015DCB8F1000F72D0B8F1010F52D08B
:101F5000B8F1040F6CD104F11A010A88521E120460
:101F6000120C0A80019944D003B0BDE8F04F084735
:101F7000B8F1640F6ED0B8F16A0F73D0B8F16B0F7F
:101F800056D14E2872D0A8E0A8F16D08B8F1090F1B
:101F90004ED2DFE808F07175794D4D7D818589005D
:101FA000A8F17708B8F1120F42D2DFE808F085896E
:101FB0008D914141989CA0A4B6CDE3E2E1E041DFE0
:101FC000A8F18A0801F0FF0EB8F11F0F30D2DFE848
:101FD00008F0F0EFEEEDECEBEAE9E8E7E6E5E4E344
:101FE000E2E1E0DFDEDDDCDBDAD9D8D7D6D5D4D349
:101FF000D200884771E04F2816D0432816D04428D5
:1020000018D04D2818D0452818D02B2818D0722861
:1020100018D04E2818D049280AD1952007E0ECE0C6
:1020200046E025E012E003E0642000E06A20207032
:10203000BDE8FE8F7220FAE77D20F8E78320F6E7FF
:102040000520F4E78C20F2E79020F0E7492844D1FE
:102050008820ECE725704B28EAD14CF00101C5E05F
:1020600000E003E04F2838D16B20E0E76C20DEE78A
:102070004E2832D16D20DAE745282ED16E20D6E7E2
:1020800043282AD16F20D2E7542826D1A57022E018
:10209000492822D17320CAE753281ED17420C6E7ED
:1020A00043281AD17520C2E74F2816D17620BEE703
:1020B0004E2812D17720BAE74E280ED17820B6E705
:1020C00045280AD17920B2E7432806D17A20AEE725
:1020D000542802D1A670C9F800E02570A8E741286D
:1020E000FBD17E20A3E74328F7D17F209FE73A2842
:1020F000F3D180200EE030280BD0092903D9052F19
:1021000001D9052A1ED8744901F80B0084F805A0EE
:1021100014E081202070E6708AE72C2810D009296D
:1021200003D9052F01D9052A0CD86B4A30230AF1AF
:10213000010102F80B3002F80A006171A12076E774
:102140008220E7E76671C8E70D2833D0092903D953
:10215000052F01D9052A04D8604AE1785054491C5A
:10216000E170E0780C28B9D9E670B6E741E038E0D4
:1021700033E02EE029E037E132E12DE128E123E1EF
:102180001EE119E1F8E0F4E0EFE0EAE0E5E0E0E08C
:10219000DBE0D6E0D1E0CCE0C7E0C2E0BDE0AEE0FD
:1021A000A6E0A1E09CE090E089E084E07FE07AE0B6
:1021B0002FE026E04CF08001C9F80010454947485F
:1021C00014310AF04AFA2570CBE7522885D18420D1
:1021D0002DE7522881D1852029E74F28B3D18620C9
:1021E00025E72570522897D14CF00201C9F800105C
:1021F0001EE75028A7D1892019E74428A3D18A20B7
:1022000015E72C289FD133481A30867006808B2022
:102210000DE730491A313A288A7807D00846C31C9E
:1022200002F803E08178491C817001E704202070E6
:1022300028484CF4806C1A300746C9F800C0F97879
:102240003E797F79042A0BD0032A1ED0022A24D09B
:10225000012A26D025702CF48060C9F80000E7E63A
:1022600001EB4102C2EBC1114FF6FF7202EAC1015C
:1022700006EBC60202EB061201EB820107EB8702B6
:1022800001EB4201827911440BE06422514306EBD9
:10229000860201EB4201394403E001EB810106EBC8
:1022A00041010180C4E6652890D18D20BFE66128F8
:1022B0008CD18E20BBE6642888D18F20B7E62570AC
:1022C000792895D14CF0040190E7412886D19120DE
:1022D000ADE6000004060020F55F002064610020E8
:1022E0004D2887D19220A2E6452887D193209EE6EB
:1022F0003A2887D1942020706048067598E60D280A
:1023000006D05E490A7D8854087D401C08758FE61A
:102310004CF48071C9F80010DFE64E28FCD19620FD
:1023200085E65428F8D1972081E64528F4D19820F5
:102330007DE65228F0D1992079E65628ECD19A20F2
:1023400075E64128E8D19B2071E64C28E4D19C2019
:102350006DE63A28E0D19D2069E63528DCD19E2043
:1023600065E63028D8D19F2061E63028D4D1A0205E
:102370005DE64CF40071CDE709290FD9052F0DD981
:10238000052A0BD93A2809D02570667103B03B485D
:10239000BDE8F04F12211530FEF732BF3749153135
:1023A000BAF1110F01F80B00504684F805A0A5D32F
:1023B0000E546671A2203AE62D28ADD1A32036E650
:1023C0004428A9D1A42032E64128A5D1A5202EE693
:1023D0005428A1D1A6202AE641289DD1A72026E68F
:1023E0003A2899D1A82022E6E3795B1CDBB2E3719D
:1023F000092903D9052F01D9052A35D8A0F1370CB1
:10240000A0F157005FEAC3780CF0FF0CC0B20DD00A
:10241000092902D884F808E01FE0052F02D884F8C3
:1024200008C01AE0052A18D8207216E0092902D837
:1024300084F809E007E0052F02D884F809C002E01B
:10244000052A00D86072607A217A40EA01100B49AF
:10245000413101EB530101F8010C342BA7D307489C
:102460001A21029A41309047E6710448267266723A
:102470001A214130FEF7C4FE2FE60000E05F002085
:102480000149024807F018BED8F60008004C004089
:1024900070B50D4E05460C460A4607A1304607F0BA
:1024A0000BFE22462946304607F03BFB3046BDE88E
:1024B000704006A107F000BE41542B43424C4553E7
:1024C000454E443D25642C00004C00400D0A0000A0
:1024D00070B50A4C104D0022A07909A100F030031C
:1024E000284607F0E9FDA2790C49284607F019FBB8
:1024F0002846BDE870400AA107F0DEBD04060020B2
:1025000041542B4441544146494C5445523D256465
:102510002C25642C00000000004C004007600020C7
:102520000D0A000030B414460A46214630BC03F0C0
:10253000F1BB7CB5144600226D4603E0A65CAE54A8
:10254000521CD2B29A42F9D30A46294603F01AFC29
:102550007CBD07F02BB800000149024807F0ACBD74
:10256000E8F60008004C004070B5044600880428D6
:1025700044D123486188028891423FD1A188408894
:1025800081423BD11921204600F06EF9617EC0B234
:10259000884233D11B481C4D017AE079B1EB101F02
:1025A00004D10120687019A007F0E4FEE079EA790F
:1025B00000F00F00904214D02048D4F80D10816034
:1025C000217E4170D4F809104160E17D0170B4F8BA
:1025D00015104180237A017B63F3000141F0020171
:1025E0000173D4F809002862E07900F00F0114A00B
:1025F00007F0C0FEE07900F00F00E87170BD000048
:102600005F0500206C430020A00500200D0A2A2A47
:102610002A2A3D3D636F6E74726F6C6C6572206127
:10262000647620636D6420726563656976656420F5
:102630002564213D3D2A2A2A2A0D0A004A36002017
:1026400072637620636F6E74726F6C6C657220615A
:102650006476207365713A2564206C61737420611F
:102660006476207365713A25640D0A0070B51446CE
:1026700013460E4E0D46024607A1304607F01CFDDC
:1026800022462946304607F04CFA3046BDE87040F5
:1026900007A107F011BD000041542B43424C4541B6
:1026A00044563D25642C25642C000000004C00405D
:1026B0000D0A00000149024807F0FEBC04F70008BB
:1026C000004C00400149024807F0F6BC10F7000832
:1026D000004C004030B5002307E0C45CCD5CAC4248
:1026E00001D0002030BD5B1CDBB29342F5D301204A
:1026F00030BD0000014A024903F02CBF056F0008FD
:102700008A4400200149024807F0D6BC2CF7000893
:10271000004C00400149024807F0CEBCF0F600082A
:10272000004C004002460249024807F0C5BC0000C8
:102730001CF70008004C004070B515460E460028F6
:1027400011D01A2D0FD8084C94F8241100290AD161
:10275000014604F58170FEF73AFD04F58E74012000
:1027600025706660207270BD3C6000200A46002122
:10277000FFF7E2BF70B50C46002811D0B4F5807F9A
:102780000ED8084D95F80111002909D101462246BD
:102790002846FEF71CFD85F80041012085F801015F
:1027A00070BD00003C600020FEE700000A460146C4
:1027B000014808F07FBD0000105A00200A4601467B
:1027C000014808F077BD0000D04B002008B504F0A8
:1027D000DFFD00280CD06946064808F035FD10F0F2
:1027E000FF0F05D1044A05499DF8000004F000F8E8
:1027F00008BD0000D04B0020752700089647002038
:1028000008B504F0EFFD00280CD06946064808F032
:102810001BFD10F0FF0F05D1044A05499DF800008B
:1028200003F0E6FF08BD0000105A0020FD75000807
:102830009A48002008B504F0DBFD00280CD069465A
:10284000064808F001FD10F0FF0F05D1044A0549C4
:102850009DF8000003F0CCFF08BD000000560020EA
:102860003DA30008924600200246002004E000BF7D
:1028700012F8013B184480B20B00A1F1010189B2AA
:10288000F6D1704710B509F05BFC18B109F0E4FC13
:10289000002010BD012010BD034951F8200008B1EF
:1028A00000207047012070472C0600207CB50C46A4
:1028B00006460146154809F01FFA0546014614A0D0
:1028C00007F058FD214616A007F054FDA54215D18A
:1028D0000096ADF8044045F26650154EADF806007E
:1028E000304601F039FB08226946304606F036FED4
:1028F00005200BF035FB0FA007F03CFD01F05EFB5F
:10290000A54201D100207CBD05207CBD0038010816
:1029100063616C63206372633A2025640D0A0000D2
:1029200046696C655F4352433A2025640D0A0000F6
:1029300000600208676F746F5F53797374656D523E
:10294000657365740D0A00000248002101608180F2
:1029500070470000AC0400200029016802D041F05B
:10296000010102E04FF6FE72114001607047000065
:1029700001684FF6FE721140016000210160416064
:102980008160C1603149314A0839904203D14868B9
:1029900040F00F0006E02D4A1432904204D14868FE
:1029A00040F0F00048607047284A2832904203D136
:1029B000486840F47060F5E7244A3C32904203D105
:1029C000486840F47040EDE7204A5032904203D10D
:1029D000486840F47020E5E71C4A6432904203D115
:1029E000486840F47000DDE7184A7832904203D11D
:1029F000486840F07060D5E7154A111F904203D136
:102A0000086840F00F0006E0114A1432904204D1E9
:102A1000086840F0F000086070470D4A2832904284
:102A200003D1086840F47060F5E7094A3C329042EF
:102A300003D1086840F47040EDE7054A50329042F7
:102A4000EAD1086840F47020E5E700000800024081
:102A50000804024030B5036847F6F07293430C6AED
:102A60008A682243D1E904452C4322438C692243DE
:102A7000CC6922434C6A22438C6A22431A43026087
:102A8000CA6842600A6882604968C16030BD7047A8
:102A900001B541F26B51009848430090002801D0E5
:102AA000401EFAE708BD00002DE9FC5FF94C012645
:102AB000A14604F1200599F80A1094F80180481CF9
:102AC000C7B2286899F80030009399F804B0DFF88D
:102AD000C8934FF0320A4FF0050C20F0020220F0AC
:102AE000010EB8F1360F2DD2DFE808F02C3544483E
:102AF000501B295C606D776964698493A7CCF4FFEF
:102B0000F1F02C2C2C2C2C2C2C2C2C2C2C2C2C2C7C
:102B10002C2CEFEEEDECEBEAE9E8E7E6E5E4E3E2A6
:102B2000E1E0052909D20020C5E900004FF4FA616F
:102B3000DA4800F051FA0620EFE0667086E0C1073F
:102B400002D06670BDE8FC9F010701D48007F9D56B
:102B500084F801C06FE04FF47A7006F037FCD04D76
:102B60000221284601F02AFB6914284601F024FBC3
:102B70000220D2E00007E5D50320CEE04FF400515B
:102B8000C74801F01BFB04206070C9E10421C44860
:102B900001F004FB012803D028784FEA007026E0FA
:102BA0000720BAE008206070C82003E20007C9D5FA
:102BB0000C20B2E00D2060704FF47A60FAE100075B
:102BC000C0D50E20AEE04FF47A71B64800F004FA9A
:102BD0000020C5E900000A209FE0C10704D00B20B7
:102BE000607040F6B830E5E10107AAD480070028FC
:102BF000A7DBA7E70529A4D2C2F3400060F30002D7
:102C0000A8484FF4FA61401F2A6000F0E5F90F2050
:102C100083E0C10701D1410707D510206070002073
:102C20002071A0722EF0040062E1010701D4800738
:102C300088D50E2038E0A77284E7032909D9C2F3AA
:102C4000400060F300022A6084F801C00020A072F6
:102C500078E79448093000EB4B10017851B1C2F38A
:102C6000400161F300024FF4FA612A6000F0B4F908
:102C7000112052E00020A07220711220607002200A
:102C800020705FE7C10707D01020C5F800E0607032
:102C90000BF101002071D9E7010701D48107A8D504
:102CA00020F00A00286010206070C4E774E152E14F
:102CB00039E114E1E4E0CEE04CE035E065E054E0D9
:102CC000BEE0ABE09FE08EE082E06BE027E016E044
:102CD0000BE0FFE70020C5E9000070484FF4FA61FF
:102CE000913800F079F9132017E0C1073FF47CAF69
:102CF000C0F3C1410098814213D014200DE00020A0
:102D0000C5E90000654968488439009A07F0D4F99C
:102D10004FF47A7006F05AFB1520607012E7C10775
:102D2000E4D02E20607091E705290ED20020C5E97D
:102D300000005A495DA25A315B4807F0BDF94FF4D3
:102D40007A6006F043FB2F20E7E70020A07284F8AA
:102D500001C0F7E6C10701D02C2019E0010701D41A
:102D600080078ED5A7722E20D7E70529EDD2002047
:102D7000C5E9000049494C484A3107F09DF94FF434
:102D8000FA6006F023FB2D20C7E7C10703D02620F9
:102D9000607032207AE0010701D48007BED5A772A7
:102DA0002C20BAE70629D0D20020C5E90000042172
:102DB0000B20CDE9000139493FA342A20D313A4829
:102DC00007F07AF94FF47A6006F000FB2720A4E7B9
:102DD000C10701D02820DBE7010701D480079DD57A
:102DE000A772262099E70529AFD20020C5E9000087
:102DF0002A492D48283107F05FF94FF4FA6006F0B0
:102E0000E5FA292089E7C10701D02A20C0E7010798
:102E100001D480079DD5A77228207EE7052994D28A
:102E20000020C5E900001D4941F6583236311E48E0
:102E300007F042F94FF4FA6006F0C8FA2B206CE76D
:102E4000C10701D03020A3E7010701D4800788D54E
:102E5000A7722A2061E703294FF000000ED200215B
:102E6000C5E900010D493C226A310F4807F024F9F9
:102E70004FF4FA6006F0AAFA31204EE7A07260E63D
:102E8000C10725D084F801A042F2107006F09EFA26
:102E9000DCE60000480400209C0600204BE400080B
:102EA0000010014011E30008004400403139322E87
:102EB0003136382E382E31006E6964657368656E60
:102EC000677269004D41524B5F4D45534800000009
:102ED000010701D480079DD5A77230201DE799F81E
:102EE000041109B1332018E7410103D520F08060B7
:102EF000286027E6810102D520F00070F8E700077E
:102F0000F7D5207A30B13149314807F0D5F80020A3
:102F1000207205E02D492E480F3907F0CDF82672B2
:102F200041F2883046E00020C5E90000B9F8001100
:102F30004846B1F5FA7F08D299F8020100F06EF91F
:102F4000342060704FF4FA6034E084F801A080F817
:102F5000036100211DE041060FD50020C5E90000F6
:102F60003520607042F2107006F030FA99F80011C6
:102F7000BDE8FC5F174800F063B9010701D4800782
:102F8000B7D584F801A00021A172C5E9001189F824
:102F9000036189F80411D5E581060FD584F801A0F5
:102FA0000021A172C5E9001189F8036189F80411B3
:102FB00042F21070BDE8FC5F06F008BA010701D4C8
:102FC000800796D584F801A040E60000D3E400080D
:102FD000004400409C06002010B50C460146044801
:102FE00007F06AF82046BDE8104006F0EFB900008F
:102FF0000044004010B50749002001F12004086199
:103000008872C4E9000001224A7088811831C870B2
:10301000088010BD480400202DE9F041664DA5F15F
:1030200020042868002809DAC0F3C36003F028F8F8
:10303000E07938B161A000BF07F09CF96278012AFD
:1030400002D003E063A0F7E7E078A0700126E27009
:10305000072A64D009DC654F4FF40058052A33D2A3
:10306000DFE802F0323442475000614B362700203F
:103070006049362A61D016DC082A53D0102A23D1A1
:103080002968002955DA21F000412960C90E042978
:103090001AD163616770A0726671A070BDE8F041DB
:1030A00055A007F067B9372A74D0382A0CD12A689E
:1030B000130709D56770A07222F00802C5F8002036
:1030C00081F8036181F80401BDE8F0814FF47A7062
:1030D00006F07CF90221384601F06EF84146384688
:1030E00001F06AF802201BE028780007ECD50320E5
:1030F00016E04146384601F061F80420607043F65E
:10310000982052E00421384601F048F818B1287898
:103110004FEA00700EE0072002E06670D4E7082056
:103120006070D1E728780007CED5102060703A484B
:103130003BE008070028F0DBC6E72A68002A13DA1C
:1031400022F000422A60D20E6361042A08D0607126
:10315000A17A491CC9B2A1721429B5D9A072DCE7C1
:103160006671A070A0720EE0606908B1104606E0BA
:1031700022F0F04000F1205040F000402860C0F301
:10318000C3600428A0D191F8040100289CD0372006
:10319000C6E7FFE7B1F80021FF2A0AD8D1B21548E7
:1031A00000F04EF8382060706420BDE8F04106F071
:1031B0000DB9677084E70000680400204D657368EE
:1031C0005F6E6F64655F747970653A726F6F740DCE
:1031D0000A0000004D6573685F6E6F64655F747907
:1031E00070653A7375620D0A00000000001001401E
:1031F000803801009C0600205B436F6E2073746171
:1032000074655D203A204D65736820436F6E6E656E
:103210006374210D0A0000000053070010B50B462F
:1032200002460549054806F047FFBDE810404FF447
:10323000FA6006F0CBB8000038E400080044004013
:1032400006F0D6BD0A490A69824202D9121A0A61F9
:1032500005E0074A2032136843F0080313604A6907
:10326000824201D9101A00E0002048617047000036
:10327000480400202DE9F04F764D044605F1200763
:10328000B5F80C80A0F1300200F00F0A0026386873
:1032900085B0B8F1BF0F7AD070DC05F11809B8F12C
:1032A000920F75D044DCB8F1750F72D02BDCB8F1F9
:1032B0006A0F6FD01BDCB8F1640F6CD008DCB8F17A
:1032C000070F69D2DFE808F0A9A6A699CAC9C80005
:1032D000B8F1660F61D0B8F1670F5FD0B8F1680F31
:1032E0005DD0B8F1690F57D1202C59D0C0E0A8F1BA
:1032F0006B08B8F10A0F4FD2DFE808F0B98CB8B705
:10330000B6B5B4B3B2B1A8F17708B8F11B0F43D288
:10331000DFE808F0C2C1C0BFBEBDBC80808080BBFA
:10332000BAB9B8B7808080B6B5B4B3B2B1B0AF00A7
:10333000484BA8F19308183303F1040B197993F85B
:1033400003C003F1100EB8F12C0F63D2DFE808F0D0
:10335000D8D7D6D5D4D3D2D1D0CFCECD62CCCBCACC
:10336000C9C86262C7C6C5C4C3C2C1C062BFBEBD50
:10337000BC62BBBAB9B8B7B6B5B4B3B2A8F1C008AD
:10338000DB214FF4887CB8F1540F43D209E052E3BB
:103390006BE131E204E2EFE13CE0F3E1F6E1F9E177
:1033A000FCE1DFE808F0FFFEFDFCFBFAF937F8F777
:1033B000F6F5F4F3F2F137F0EFEEEDECEBEAE9E8D5
:1033C000E7E6E5E4E3E2E1E0DFDEDDDCDBDAD9D805
:1033D000D7D6D5D4D3D2D1D0CFCECDCCCBCAC9C8F5
:1033E000C7C6C5C4C3C2C1C0BFBEBDBCBBBAB9B8E5
:1033F000B7B6B5B4B3B2B1B0AFAEB9F800004F468E
:10340000401EA9F8000020468847388800282FD0A1
:10341000FE2CFCD005B0BDE8F08F4F2C3DD0532CD6
:103420003CD0432C3BD0452C3AD02B2C39D0462CC9
:1034300038D06E2C37D0722C36D04E2C35D0622C32
:1034400034D0572C33D03E2C32D0FD2C31D0062A2C
:10345000E0D2A8E048040020D9E084E1CAE0C7E156
:10346000C2E1BDE1B6E1B1E1ACE1A7E1A2E19BE1DE
:1034700009E2F6E0F1E0ECE0E7E0E2E0DDE0D8E0F0
:10348000CEE0FBE1F6E1F1E1ECE1E7E1DBE1D6E101
:10349000D1E1CCE1C2E1BDE1B4E189E08AE08BE0B9
:1034A0008CE08DE08EE08FE090E091E092E093E0A0
:1034B00094E097E0B9E2B4E2AFE2AAE252E24FE26E
:1034C00043E237E232E22DE226E221E21CE217E299
:1034D00010E20BE206E202E2FDE1F8E1F3E1EEE1E7
:1034E000E7E1E2E1DDE1D8E1CEE10AE105E100E179
:1034F000FBE0F6E0F1E0ECE0E7E0E2E0CBE0BCE0AE
:10350000B7E0F2E3F2E3F2E3F2E3F2E3F2E3F2E351
:10351000F2E3F2E3F2E3F2E3F2E3F2E3F2E3DFE316
:10352000D9E3D3E3C4E3B9E3B3E3ADE3A8E3A3E3AF
:103530009EE399E394E38FE38AE385E380E37BE30F
:1035400070E36BE366E361E35DE358E353E34EE36B
:1035500049E344E340E33BE336E331E32CE327E391
:1035600022E31DE318E313E30FE30AE305E300E3BB
:10357000FBE2F6E2F1E2ECE2E7E2DFE2DCE2CEE2FD
:10358000C9E2C4E2BFE2BAE2B2E2ADE2A8E2A3E27B
:103590009EE299E277E272E26BE266E261E25CE26D
:1035A00055E250E24BE264F3985038607720F0E146
:1035B0006420EEE16620ECE10520EAE17220E8E11A
:1035C0000420E6E1AC20E4E1B020E2E1BB20E0E150
:1035D000BF20DEE1C820DCE1D120DAE140F040008C
:1035E000386017E74FF40072A9F80020204688479A
:1035F0000320CEE1432C04D0492C04D0442C04D029
:10360000C6E30620C5E1B520C3E1F120C1E1492CA4
:1036100002D0572C02D0BBE38A20BAE1A020B8E147
:10362000462C02D0502C02D0B2E38B20B1E1962080
:10363000AFE1532CE4D18C20ABE1522CE0D18D20B2
:10364000A7E13A2CDCD18E20A3E1532CD8D18F20D6
:103650009FE1542CD4D190209BE1412CD0D19120DA
:1036600097E1492CCCD1922093E1502CC8D19320E2
:103670008FE12C2CC4D194208BE1222CC0D1952039
:10368000A8818EF8006005B00EF10100BDE8F04F92
:103690001421FDF7B5BD092A04D92E2C02D0222C05
:1036A0000CD075E39EF8001070461429A8D2F84A91
:1036B0008C540178491C8EF80010ABE640F4806011
:1036C000E0E0532C9CD1972063E1542C98D19820B2
:1036D0005FE1412C94D199205BE14D2C90D19A204F
:1036E00057E1412C8CD19B2053E1432C88D19C2065
:1036F0004FE13A2C84D19D204BE1222C8BD19E208E
:1037000047E1222C12D0092A06D9A4F1410005284C
:1037100002D92038052804D8DE49A8790C54401C69
:10372000A871A8790C28C8D9AE7131E3DAA006F0E7
:1037300021FE03A9D74808F090FF9DF80F009DF8DF
:1037400011209DF810108DE807009DF80E309DF8AF
:103750000D209DF80C10D4A006F00CFECD4808F00A
:10376000D3FBAE81DDE74F2C02D04C2C02D00FE30F
:103770006D200EE1C3200CE1AE814B2C9DD140F0B9
:1037800001002DE7452C8CD1672002E14E2C88D119
:103790006820FEE0442C84D16920FAE06A20F8E039
:1037A0004F2CC2D16B20F4E0AE814B2C85D140F080
:1037B000200015E74E2CB8D16E20EAE04E2CB4D193
:1037C0006F20E6E0452CB0D17020E2E0432CACD174
:1037D0007120DEE0AE81542CD0D140F01000FFE625
:1037E000522CA2D17320D4E0522C9ED17420D0E070
:1037F0004F2C9AD17520CCE0AE81522CBED140F036
:103800000200EDE62C2C03D0AE8120F0E070E7E65C
:103810007820BEE0432C88D17920BAE04C2C02D02D
:103820004F2C02D0B4E27A20B3E08220B1E04F2CDA
:103830009DD17B20ADE0532C99D17C20A9E0452C73
:1038400095D17D20A5E0AE81442C97D1C0F3825064
:1038500002F0FEFB386840F08060C1E64E2C86D155
:10386000832096E04E2CDDD1842092E0452CD9D1E6
:1038700085208EE0432CD5D186208AE0542C02D1BD
:1038800040F00070386083E24A2C02D04D2C02D008
:103890007EE2A1207DE0A7207BE0412C73D1A22015
:1038A00077E0502C6FD1A32073E03A2C6BD1A42089
:1038B0006FE0AE81312C8FD140F4007090E64F2C38
:1038C00061D1A82065E0442C5DD1A92061E0452CA0
:1038D00059D1AA205DE03A2C55D1AB2059E062F3D2
:1038E000D440CFE7412C4ED1AD2052E0492C4AD1F3
:1038F000AE204EE0AE814C2CA7D140F400606FE6C4
:103900006F2C40D1B12044E0202C3CD1B22040E0CB
:10391000692C38D1B3203CE0AE81702C95D140F4B5
:1039200080505DE6502C2ED1B62032E0442C2AD1B6
:10393000B7202EE0A9F800604846EE612C2C22D179
:10394000C67089F80260B82023E00A2A1BD20CF85E
:103950000BA099F80310491C89F80310B92018E04E
:103960002C2C11D03A2C16D00CF80BA099F803107F
:10397000491C89F80310BA20A5F80C0099F8030037
:10398000042800D846E5B9E089F8021089F80360F8
:10399000BA20A8813EE53E4B0322AA8140F40014E0
:1039A000113B3C605A799B794846BCF1040F0DD01D
:1039B000BCF1030F1ED0BCF1020F23D0BCF1010FEC
:1039C00024D0AE8124F400103860D7E701EB410425
:1039D000C4EBC1114FF6FF7404EAC10102EBC2044B
:1039E00004EB021201EB820103EB830201EB4201C3
:1039F000C2790AE06424614302EB820201EB4201D6
:103A0000194403E001EB810149001144A9F80010B9
:103A100000E5652C72D1BC20BBE7612C6ED1BD20C6
:103A2000B7E7642C6AD1BE20B3E7AE81792CA9D167
:103A300040F00400D4E56F2C60D1C020A9E7202C11
:103A40005CD1C120A5E7412C58D1C220A1E7AE81AD
:103A5000502C97D140F40050C2E54F2C4ED1C420D9
:103A600097E7532C4AD1C52093E7452C46D1C62071
:103A70008FE7AE81442C85D140F08000B0E5752CF5
:103A80003CD1C92085E7732C38D1CA2081E70000DA
:103A900071040020A20700202323204553505F53C8
:103AA00054415F4D41433A00253032583A25303277
:103AB000583A253032583A253032583A2530325863
:103AC0003A253032580D0A00792C17D1CB2060E707
:103AD000202C13D1CC205CE7732C0FD1CD2058E7DC
:103AE0002E2C0BD1CE2054E72E2C07D1CF2050E71F
:103AF000AE812E2C8CD140F4802071E515E0492C4C
:103B000013D1D22045E7462C0FD1D32041E7492CD1
:103B10000BD1D4203DE7202C07D1D52039E7432C09
:103B200004D0442C04D0472C04D031E1D62030E717
:103B3000E1202EE7EB202CE74C2C02D04F2C02D0BA
:103B400026E1D72025E7A98164E4532C6ED1D92042
:103B50001FE7452C6AD1DA201BE7AE8140F4804094
:103B60003EE54E2C62D1DC2013E74E2C5ED1DD20E9
:103B70000FE7452C5AD1DE200BE7432C56D1DF202E
:103B800007E7542C52D1E02003E740F4004079E6E7
:103B9000492C4BD1E220FCE6532C47D1E320F8E638
:103BA000432C43D1E420F4E64F2C3FD1E520F0E64E
:103BB0004E2C3BD1E620ECE64E2C37D1E720E8E650
:103BC000452C33D1E820E4E6432C2FD1E920E0E670
:103BD000542C2BD1EA20DCE640F4803052E64F2C06
:103BE00024D1EC20D5E6542C20D1ED20D1E6202C98
:103BF0001CD1EE20CDE6492C18D1EF20C9E6502C7F
:103C000014D1F020C5E640F400303BE6422C0DD143
:103C1000F220BEE6472C09D1F320BAE63A2C05D1B2
:103C2000F420B6E66D2C02D06E2C02D0B0E0F52068
:103C3000AFE640F20310ACE6652C6ED1F620A8E6A4
:103C4000732C6AD1F720A4E6682C66D1F820A0E690
:103C50005F2C62D1F9209CE6732C5ED1FA2098E6A5
:103C6000742C5AD1FB2094E6612C56D1FC2090E6AE
:103C7000742C52D1FD208CE6752C4ED1FE2088E6A6
:103C8000732C4AD1FF2084E63A2C46D14FF4807041
:103C90007FE6282C7CD140F201107AE6092A77D8F9
:103CA00040F000406AF3DE6038604FF4817070E6E7
:103CB000687A401CC0B268720D2C04D00A2C02D065
:103CC00011287FF68EACAE816E728AE46F2C5FD1C4
:103CD0004FF482705DE6642C5AD140F2051058E62C
:103CE000652C55D14FF4837053E650E04AE044E030
:103CF00040E03CE036E030E024E01EE018E012E076
:103D00000CE005E0FFE75F2C42D140F2071040E6EF
:103D1000742C3DD14FF484703BE617E0792C37D1F9
:103D200040F2091035E6702C32D14FF4857030E640
:103D3000652C2DD140F20B102BE63A2C28D14FF4F4
:103D4000867026E6722C02D0732C03D020E040F25D
:103D50000D101EE6A5F80CC043E46F2C18D14FF4EB
:103D6000877016E66F2C13D140F20F1011E6742CF9
:103D7000F0D00DE00120E8710AE0752C08D14FF475
:103D8000897006E6622C03D140F2131001E6EE7151
:103D9000AE8126E410B5012000F05EF800280ED0B8
:103DA0000121074800F0FAF9064908B1002000E0B7
:103DB00001200870BDE81040012000F047B810BD98
:103DC000000801402804002010B54FF4005420469C
:103DD00000F042F8002804D02046BDE8104000F072
:103DE00035B810BD7FB50121092003F043FB4FF426
:103DF000C06002F03DFA28208DF8080000258DF8FB
:103E0000095001248DF80A408DF80B4002A802F0F9
:103E1000FDF96603ADF80C6048208DF80F0003A98A
:103E2000094800F03FF90D21012000F027F98DF835
:103E300004500C208DF8050000968DF80640684669
:103E400000F01AF87FBD0000000C01400149086035
:103E50007047000014040140064A01460020126821
:103E6000044B0A4014331B680B4202D0002A00D0D6
:103E7000012070470004014030B51A498379026877
:103E800053B30B6893430B600A1D13680468A34384
:103E9000136002790A441368046823431360114ACB
:103EA000083213680468A3431360131D1C68056877
:103EB000AC431C604479102C05D021440A6800688A
:103EC00002430A6030BD116804682143116019681B
:103ED00000680143196030BD0079084401689143CE
:103EE000016030BD000401407FB50121052003F0D1
:103EF000C1FA4FF4C06002F0BBF906208DF808004B
:103F000000258DF8095001248DF80A408DF80B40EA
:103F100002A802F07BF9ADF80C4048208DF80F00A4
:103F200003A9094800F0BEF80021084600F0A6F8F1
:103F30008DF8045010208DF8050000948DF806408F
:103F40006846FFF799FF7FBD000801400149C8603E
:103F5000704700000020024070B505464FF430263F
:103F6000304600F071F8042811D1094C206940F066
:103F7000020020616561206940F040002061304608
:103F800000F062F8216941F6FD721140216170BDB7
:103F90000020024008490420CA68D20701D001204D
:103FA0007047CA68520701D502207047C968C90620
:103FB000FBD5032070470000002002400248016941
:103FC00041F08001016170470020024001B5009876
:103FD000410503D0012101EBD02008BDC00A08BD76
:103FE0002DE9F841064600204FF4005700900D4699
:103FF000384600F029F8042816D10C4C206940F00E
:10400000010020613580B846384600F01DF8BF1E1B
:10401000042806D1B61C280C00963080404600F0DB
:1040200013F8216939402161BDE8F8810020024080
:1040300003480249416003494160704723016745D5
:1040400000200240AB89EFCD00B50346FFF7A2FF89
:1040500003E000BFFFF79EFF5B1E012803D0002B8B
:1040600000D1052000BD002BF4D1FAE74FF47A719E
:10407000014805F021B90000C1F4000810B58A0715
:1040800021F003040649130F21440F228C689A4043
:1040900094438C608A68984002438A6010BD000097
:1040A00000000140F0B5CA78002502F00F03D206E7
:1040B00001D58A7813430C784FF00F0E0122ECB132
:1040C000D0F800400F8802FA05F63740B74211D108
:1040D0004FEA850C0EFA0CF724EA070703FA0CF4F2
:1040E0003C43CF78282F02D0482F02D002E046610F
:1040F00000E006616D1C082DE4D304600C88FF2CE1
:104100001ED944685FF0000606F1080702FA07F5B9
:104110000F882F40AF420FD14FEA860C0EFA0CF7F2
:10412000BC4303FA0CF73C43CF78282F00D14561FC
:10413000CF78482F00D10561761C082EE4D3446067
:10414000F0BD0000F0B5144C002801DAE36900E08E
:104150006368420D120185B2C0F301579540C0F368
:104160000346032F05D0C2020AD50322B24093436F
:1041700007E023F07062636823F07063636002E01D
:10418000AB4343F0706201B12A43002801DAE261D7
:10419000F0BD6260F0BD000000000140024600205A
:1041A00092680A4200D00120704702460020D2687F
:1041B0000A4200D001207047416170470161704799
:1041C00002480078C0F3401070470000AC040020A3
:1041D00009480021A0F12002016081800121D170F5
:1041E000427822F040024270044A82F80811817835
:1041F00041F0080181707047AC0400204432002077
:10420000011F0748042909D2DFE801F00208080568
:104210004021FFF7D1BF4021FFF7D0BF704700001A
:10422000000801402DE9F34F154C0546204687B0A4
:10423000B0F814B0B4F812C00BF101001FFA80FA04
:1042400004F1200000260779C1780091417901919D
:10425000BCF1990F16D016DC0146BCF1990F91F80C
:10426000029091F800E091F80180214648F0800327
:10427000CA7B029302F10101C9B205D205E0000038
:104280008C040020EFE339E142E15FEA8C0300BFD8
:104290007B445B689F440000A80400000605000002
:1042A0004E0E0000100500004E0E00002E0500000E
:1042B000360500004E0E00004E0E00004E0E0000AF
:1042C0004005000048050000500500004E0E0000AB
:1042D0004E0E00004E0E00004E0E00004E0E00006E
:1042E0004E0E00004E0E00005A0500006205000050
:1042F0006A050000720500004E0E00004E0E000020
:104300004E0E00004E0E00004E0E00004E0E00003D
:104310007E0500009A050000E6050000EE0500009D
:10432000F6050000FE050000020600000A06000077
:10433000120600004E0E000028060000360600009F
:104340003E060000460600004E0600005206000031
:104350005A060000620600004E0E00004E0E0000DD
:10436000760600004E0E00007E0600008606000065
:104370008E06000098060000CE060000E40600004D
:10438000FA06000010070000640700004E0E00004F
:104390004E0E00004E0E000098070000AA07000015
:1043A000B2070000BC070000C4070000D0070000EF
:1043B000F4070000040800000C08000014080000C6
:1043C0001808000020080000260800002E08000041
:1043D0004E0E00004E0E000040080000480800008D
:1043E00050080000580800004E0E00004E0E00005D
:1043F0004E0E00004E0E00004E0E00004E0E00004D
:104400004E0E00004E0E00004E0E00004E0E00003C
:104410004E0E00004E0E00004E0E00004E0E00002C
:104420004E0E00004E0E000086080000A00800009E
:10443000A8080000B0080000B8080000C00800008C
:10444000C8080000D00800004E0E00004E0E00000C
:10445000E8080000F0080000020900000A09000056
:10446000120900001A090000220900002A090000B0
:10447000320900004E0E000040090000480900000B
:1044800050090000580900004E0E00004E0E0000BA
:104490004E0E00004E0E00004E0E00004E0E0000AC
:1044A00062090000740900007C0900008409000012
:1044B0008C090000940900004E0E00004E0E000012
:1044C0004E0E00004E0E00004E0E00004E0E00007C
:1044D0004E0E00004E0E00004E0E00004E0E00006C
:1044E0004E0E00004E0E00004E0E00004E0E00005C
:1044F0009E090000A6090000C0090000ACF1A00C54
:10450000DFF80C88A5F13001BCF1880F00D200E083
:1045100080E15FEA8C0300BF7B445B689F4400003E
:1045200070070000A4030000C60B0000C60B0000CB
:10453000C60B0000C60B0000C60B0000C60B000037
:10454000C60B0000C60B00007C07000084070000BB
:104550008C070000940700009C070000A4070000DF
:10456000AE070000C60B0000C60B0000C60B000023
:10457000D6070000DE070000E6070000FC07000089
:10458000040800000C080000140800001C080000CB
:10459000240800002C080000340800003C0800003B
:1045A000440800004C080000C60B0000C60B0000C9
:1045B000C60B0000C60B0000C60B0000C60B0000B7
:1045C000580800006008000068080000700800003B
:1045D00078080000C60B0000C60B0000C60B0000E8
:1045E000C60B0000C60B0000820800008A0800000D
:1045F000920800009A080000A2080000B608000017
:10460000BE080000C6080000CE080000D608000062
:10461000DE080000E6080000EE080000F6080000D2
:10462000FE08000006090000C60B0000C60B0000D3
:10463000C60B0000C60B000010090000180900009E
:104640002009000028090000300900003809000096
:104650004009000048090000500900005809000006
:104660006009000068090000700900007809000076
:1046700080090000C60B00008A09000092090000B2
:104680009C090000A4090000CA090000C60B000034
:10469000C60B0000C60B0000C60B0000D8090000C6
:1046A000E2090000EC090000F6090000000A000021
:1046B0000A0A0000140A00001E0A0000C60B0000CF
:1046C000C60B0000C60B0000C60B0000C60B0000A6
:1046D000C60B0000C60B0000280A0000320A0000CA
:1046E0003C0A0000460A0000C60B0000C60B000092
:1046F000C60B0000C60B0000C60B0000C60B000076
:10470000520A00005C0A0000680A00007A0A0000F1
:10471000240B0000C60B0000C60B0000C60B0000F7
:10472000C60B0000C60B00003C0B0000460B00004F
:10473000500B00005A0B0000640B00006E0B0000D1
:104740003E2D13D0FD2D13D04F2D1AD0452D1AD04C
:104750002B2D1AD0432D1AD04E2D1AD0532D1AD0EE
:10476000482D1AD0522D2BD10520A6E10120A4E11D
:1047700003206082A682089909B02846BDE8F04F60
:1047800008470A2099E1142097E11E2095E1642052
:1047900093E16E2091E182208FE196208DE1202D22
:1047A00038D149F0010192E1089928468847A08A4A
:1047B000411CA182FF2801D9A6826682FE2D29D044
:1047C00009B0BDE8F08F442DEAD1062075E1592DDE
:1047D000E6D147F00801CDE24B2DE1D10B206CE191
:1047E0000D2DDDD10C2068E10A2DD9D14EF001014B
:1047F0000FE0522DD4D115205FE1522DD0D11620DB
:104800005BE14F2DCCD1172057E1522DC8D14EF08E
:1048100002010170DFE1432D04D0552D04D0492D54
:1048200004D0D8E11F2048E1A02046E14FF48C706D
:1048300043E1522D10D0472D10D04D2D10D04C2DCE
:1048400010D0532D10D0462D10D0502D10D0422D09
:1048500010D0432D10D0BEE120202EE128202CE1E5
:1048600032202AE1402028E1502026E1C82024E11E
:10487000D22022E1F62020E14FF491701DE1452D78
:10488000C8D1212019E1472DC4D1222015E13A2DAC
:10489000C0D1232011E1202D01D025200DE12420BD
:1048A0000BE12C2DB6D1262007E1312D05D0352D79
:1048B00003D028F0100141708DE148F01001FAE7B3
:1048C000522D02D04E2D6ED085E12920F5E0452DE8
:1048D000A0D12A20F1E0472D9CD12B20EDE03A2DEC
:1048E00098D12C20E9E0202D01D02E20E5E02D20CC
:1048F000E3E02C2D8ED12F20DFE0312D04D0352D9B
:1049000002D028F02001D6E748F02001D3E7542D4B
:1049100087D13420D1E03A2D9DD13520CDE0202D16
:1049200099D13620C9E0222D95D13720608218E038
:10493000122A90D8F748222D0FD0302D01D2012312
:1049400000E00023392D01D9012700E000273B4377
:1049500001D02B2DB0D185540AE0865438206082D6
:104960002274E6732CE72C2D02D0222D71D101E0A8
:10497000E17325E7012AF5D9392011E0E548123025
:104980002B2D8554E17301D13A2009E0122993D2ED
:1049900016E70A2D03D0E1730A298DD210E73B20D8
:1049A0006082A682DDE777E1DB493C23524601F8CD
:1049B0000B50A4F814A0532D0FD02A2D18D00A2D77
:1049C000D0D18B1813F8023C0D2BCBD1029B437036
:1049D000921E90B2A0820E5485E3881810F8020C43
:1049E0004128BFD16382087053204870022003E041
:1049F00063822A2008700120A082E1E6C64A51465F
:104A00000A2D02F80B50A4F814A00CD0531813F878
:104A1000023C0D2B07D0FF2900D96682232DA1D19E
:104A20005654029947E7891E88B2A08216545AE369
:104A3000492D02D0432D02D055E341203DE04620D0
:104A40003BE0502DC8D1422037E03A2DC4D143205D
:104A500033E011E0202DBFD144202EE0222DBBD128
:104A6000E673452029E00DE1AA4B123B222D05D02B
:104A70000098C00700D19D54E17387E749F02001F9
:104A80008170607C401C60749E542CE3432DA3D144
:104A90004721618249F08001817091E63A2D9BD1D6
:104AA00048200AE0202D97D1492006E04A2004E062
:104AB0002C2D91D14B2000E04C20608280E62C2DE3
:104AC0008AD14D20F9E7302D03D029F004018170FF
:104AD00009E349F00401FAE7512DA8D15120ECE790
:104AE0003A2DA4D15220E8E7202DA0D15320E4E7AD
:104AF000874926392C2DC97A07D005F00F0001EB24
:104B0000810100EB4100E0725AE6009A42F0800217
:104B1000C27061700120A0706682E67250E64F2D6F
:104B200004D04C2D04D0612D04D0DCE26520C4E714
:104B30007820C2E7FF20C0E74E2DA6D16620BCE753
:104B40004E2DA2D16720B8E7452D9ED16820B4E74D
:104B5000432D9AD16920B0E7542D96D16A20ACE755
:104B6000202D92D16B20A8E74F2D02D0462D03D0E7
:104B7000B9E24EF020014CE6019941F00101B9E1A2
:104B80004F2DA5D16F2098E7202D02D0522D02D0B5
:104B9000A9E2702091E7B4208FE7432D98D17120CE
:104BA0008BE7412D94D1722087E7522D13D17320CA
:104BB00083E7522D0FD174207FE7492D0BD175204B
:104BC0007BE7452D07D1762077E7522D03D1009959
:104BD00041F00801C17086E24F2D12D179206CE7B7
:104BE000532D0ED17A2068E7452D0AD17B2064E74A
:104BF000442D06D148F001015DE6452D02D0542D2B
:104C000002D070E2832058E7E62056E74E2D3ED1D1
:104C1000842052E7442D3AD185204EE7202D36D10D
:104C200086204AE74F2D32D1872046E74B2D2ED1E3
:104C30004EF00801EDE5502D29D197203DE7422D9A
:104C400025D198206082344848210170502141705C
:104C5000422181700320CFE62F485146452D00F8B0
:104C60000B50A4F814A00BD0084410F8022C502AC2
:104C700006D010F8030C482802D0FF2907D89FE57A
:104C800099201AE7244800F80B50A4F814A02AE24F
:104C9000472D2FD1A12010E7AA200EE7532D29D1AF
:104CA000AB200AE7492D25D1AC2006E74E2D21D1B6
:104CB000AD2002E7462D1DD1AE20FEE63A2D19D1DA
:104CC000AF20FAE6202D15D1A671B020F5E61049E7
:104CD000114A26399E3A89790A2D05D0742909D2BC
:104CE0005554491CA1716BE55654009941F040019F
:104CF000C170A671F7E14D2D3DD1B520DDE6412D06
:104D000039D1B620D9E64C2D35D1B720D5E60000F3
:104D1000B2040020B8310020A6300020202D2AD176
:104D2000B820CAE6502D26D1B920C6E64F2D22D193
:104D3000BA20C2E6572D1ED1BB20BEE6452D1AD1A2
:104D4000BC20BAE6522D16D1BD20B6E6202D12D1D8
:104D5000BE20B2E6442D0ED1BF20AEE64F2D0AD1C3
:104D6000C020AAE6572D06D1C120A6E64E2D02D1BD
:104D700047F040010171B6E1552D26D1C9209CE6CE
:104D80004E2D22D1CA2098E63A2D1ED1CB2094E692
:104D9000202D1AD1CC2090E6312D16D147F01001EC
:104DA000E8E7492D11D1D32087E64E2D0DD1D4202F
:104DB00083E63A2D09D1D5207FE6202D05D1D620D6
:104DC0007BE64E2D02D0522D02D08CE1D72074E626
:104DD0004FF4877071E64F2D6FD1D8206DE6542DBA
:104DE0006BD1D92069E6202D67D1DA2065E6492DFF
:104DF00063D1DB2061E64E2D5FD1DC205DE6532DD3
:104E00005BD1DD2059E6452D57D1DE2055E6522DE8
:104E100053D1DF2051E6542D4FD1E0204DE6452DF2
:104E20004BD1E12049E6442D47D147F02001A1E7CD
:104E3000412D42D1E72040E6542D3ED1E8203CE60A
:104E4000452D3AD1E92038E63A2D36D1EA2034E62C
:104E5000202D32D1EB2030E6542D2ED1EC202CE643
:104E6000432D2AD1ED2028E6502D26D1EE2024E630
:104E7000202D22D1EF2020E6432D1ED1F0201CE66C
:104E80004C2D1AD1F12018E64F2D16D1F22014E640
:104E9000532D12D1F32010E6452D0ED1F4200CE64F
:104EA000442D0AD147F0800164E7432D05D1F72056
:104EB00003E63A2D01D1F820FFE50EE0202D0CD1BC
:104EC000F920FAE5894AFA21302D527922F0300290
:104ED00004D0312D05D0322D05D004E1427161821C
:104EE0006EE41032FAE72032F8E72C2D03D1019955
:104EF00041F004014171F6E06C2D61D14FF48070F6
:104F0000DBE56C2D5CD140F20110D6E5202D57D1A8
:104F10004FF48170D1E5522D52D140F20310CCE50F
:104F2000652D4DD14FF48270C7E5612D48D140F217
:104F30000510C2E5642D43D14FF48370BDE5792D92
:104F40003ED147F0020115E7452D39D140F20F104F
:104F5000B3E5412D34D14FF48870AEE5442D2FD107
:104F600040F21110A9E5592D2AD1019941F008010B
:104F7000C0E7502D24D140F219109EE5442D1FD1D9
:104F80004FF48D7099E500BFC4F82660C4F82A601C
:104F90002C2D15D140F21B108FE55448801D3A2D61
:104FA00082780ED0C31CD15498F80210491C88F89E
:104FB000021000BF98F80210042991D988F8026005
:104FC00091E04A4B4FF48E709B1D6082D97818791E
:104FD0005B794546042A10D0032A23D0022A29D01F
:104FE000012A2DD066822E80288807F039F828887B
:104FF000B0F5007FDED96682DCE701EB4102C2EB4F
:10500000C1114FF6FF7202EAC10100EBC00202EBD0
:10501000001001EB800003EB830100EB4100A97954
:1050200008440BE06422514300EB800001EB400098
:10503000184403E001EB810100EB41002880D3E735
:105040002980D1E7089928468847B8F80010491EFA
:105050000904090CA8F8001045D083E4492D42D179
:1050600040F2231029E5442D3DD14FF4927024E500
:105070000D2D38D140F225101FE50D2D33D14FF401
:1050800093701AE50A2D2ED140F2271015E5174826
:1050900020380929007B06D9A5F14101192902D937
:1050A0002039192904D812490D54401C207359E4A1
:1050B0000D2D01D00A2D11D114280FD10C49142225
:1050C000A1F18C00FCF783F818216846FCF798F8EA
:1050D000074914228C396846FCF779F814210448F2
:1050E000FCF78EF8267366823CE40000AC040020D6
:1050F0008030002001488078704700006004002064
:1051000070B51A4800881A4904F0B2FB40F6E44131
:105110004843000B80000321B0FBF1F5154840F631
:10512000AC5604464560B54205D24FF400411248E2
:10513000FFF734F848B1207820F0FC00207041F2ED
:105140006800854206D964200DE0207820F0FC003C
:105150000C30F3E7B54205D9A5F6AC550720B5FBF1
:10516000F0F000E00020607070BD000040040020FE
:105170006136002090050020000C01402DE9F04F21
:10518000F94C9BB094F80380B8F1010F01D160791C
:105190002071F548F44B00F1200580F80580AA78CD
:1051A00022F008000D902978C2F3C009C1F340062F
:1051B000089693F80DA046EA09060AF1010303F0E8
:1051C000FF0C01F00103039322F002030B936F78AD
:1051D00021F0020027F01003159327F00403119328
:1051E00027F00803149321F02003109321F0080303
:1051F0000E9322F001030A961393EB7821F0010E2F
:105200009B4623F010030F9342F004031293089E71
:10521000039B334343EA090319932B791793D24B2A
:105220000126B8F14E0F9B7B189305F10E031B78F6
:1052300008936B79169373D2DFE808F03E27334169
:105240004D5862737EA4B33E72728972727272FD9F
:10525000FCFBFAF9F8F7F6F5F4F3F2F1F0EFEEED06
:10526000ECEBEAE9E8E7E6E5E4E3E2E1E072DFDE61
:10527000DD7272DCDBDAD9D8D7D6D5D4D3D272724C
:105280007272727272727272723E100714D5FDF7EA
:105290005BFB0420E0702670002060734FF4FA700E
:1052A00014E00320E070267040F2DC5004F026F891
:1052B000A87820F00800A8701BB0BDE8F08F100798
:1052C000FAD50720E07026704FF47A601BB0BDE875
:1052D000F04F04F013B8FDF737FB4FF4FA6004F019
:1052E0000DF80420FEF78CFF052030E21007E3D50F
:1052F0004FF4FA6004F002F80920FEF781FF0DE098
:1053000002F08AF820B1A8780007D5D504201EE263
:10531000FDF71AFB4FF4FA6003F0F0FF072016E2E6
:10532000B9E01007C8D54FF4FA7003F0E7FF072083
:10533000FEF766FF08200AE21007BDD540F6B83038
:1053400003F0DCFF0820FEF75BFF0E2024E0C90716
:105350000BD01421E1700021A17326706173C0F39A
:10536000400161F3000028702CE01107A4D5BAF1C8
:10537000080F01D9E6705BE2C0F3400161F3000061
:10538000287076E0100797D540F6B83003F0B6FFE6
:105390000920FEF735FF0A20E070002060732670B8
:1053A0005CE0179B5F064FF00B0350D4C90749D050
:1053B000607A401CC0B260722670052808D90020AF
:1053C0006072E0701BB00C20BDE8F04FFEF718BF14
:1053D0000920E07040F6B83003F090FF00202BE089
:1053E000FBE3D7E35DE3CAE3B9E37AE343E3F5E341
:1053F000E2E3F4E3F4E324E3F8E2DBE2B2E299E28D
:10540000CFE2BCE23AE21FE287E260E244E2E6E198
:1054100090E19DE176E164E150E140E12DE119E1A7
:1054200006E1F0E0DDE0C2E0B3E0A7E088E073E091
:1054300058E039E031E022E0A0736073287820F072
:10544000020096E3110791D5BAF1030F0BD9E3706F
:105450002670002060730C20FEF7D2FE1BB0BDE862
:10546000F04FFDF771BAC0F3400161F300002870FE
:10547000267040F6B8313D4803F01EFFFAE0179859
:10548000800706D5179820F0020028710020A0732D
:1054900011E01007D7D5E670BFE34FF4FA51344856
:1054A00003F00AFF1520D5E3169B1B0705D51698B8
:1054B00020F0080068711620CCE3C90702D085F8F7
:1054C00000E0F8E71107BED584F80DC0BCF1020F6B
:1054D00003D900216173E67001E01421E1700D9998
:1054E000A97055E3BAF1020F3FF644AF71466EF36F
:1054F000410129701720E0701C4818990B3000EB0F
:105500004110017831B11BB040F6B831BDE8F04F21
:1055100003F0D2BE18206EE3C80709D01620E07051
:1055200026700B98A870189800F10100A07380E114
:10553000880701D4100786D50B98A8701620B5E00F
:10554000BAF1500FA7D215996970C0F3400161F309
:10555000000028705FEACA700CD005484FF47A71D9
:10556000C43803F0A9FE07E08C0400201EF30008F5
:105570008EF50008FEF77AFD19206BE3F8062DD5AD
:10558000C8072BD01A2036E318208FE08807FBD4F9
:1055900092E6BAF1280FD5D215996970C0F340018F
:1055A00061F300002870FEF761FD1B2052E3C8077D
:1055B00014D05FEA0B6011D56078042804D9272045
:1055C000E0700020607303E01A20E07084F80DC0E2
:1055D00085F800E02BF08000E8701EE31007D5D5B9
:1055E000D2E7BAF1140FADD227F040016970C0F3D1
:1055F000400161F3000028704FF4FA61F84803F0AD
:105600005BFE1D2026E3B80607D5C80705D01E207F
:10561000E07026700020607306E0100704D51C209F
:10562000E070267084F80DC08807B1D51C201FE0FB
:10563000BAF1030F03D328700D98A87020E0C0F3CF
:10564000400161F30000287044F6206003F022FE60
:105650001F20FFE2C80701D02020CCE2100704D5AC
:105660001E20E070267084F80DC0880790D51E209B
:10567000E0702670607B401CDCE0BAF1030F01D3C0
:105680003720E7E2C0F3400161F300002870D448FE
:1056900044F620613B3003F00FFE2120DAE2CB0715
:1056A00001D02220A7E2120702D52020E0701EE0E0
:1056B0008907BAD500216173E67069E2BAF1030F78
:1056C00002D300206073DBE7C0F3400161F3000008
:1056D0002870C34840F6B831463003F0EDFD232072
:1056E000B8E2880707D52220E0701198687026700C
:1056F00084F80DC0E0E51007FCD52420E070119877
:10570000687095E084F80DC0BCF10A0FBFF4C3AE19
:1057100014986870C0F3C00060F3451129700898B0
:10572000002807D0AF4901F12F020D31012802D026
:10573000022805D03CE1AA4844F62063513003E03A
:10574000A74844F620636F3003F0C8FD252081E2AE
:10575000C7F3C000C1F34013184311D0149841F0AF
:105760002001C0F3C00363F34102AA702970002135
:1057700021712621E170267040F0400068709BE5A1
:10578000880703D50B98A870242063E21698C007F9
:1057900011D0169820F001006871A07A401CC0B2A8
:1057A000A0720528A6D30020A072E67042F2107005
:1057B00003F0A4FD31E2C1F38010C7F3800210436F
:1057C00040EA090050EAD11094D0119868700D9801
:1057D00020F00200A87021F0E000287050E7890650
:1057E0000DD4089959B110982870C0F3401060F397
:1057F0000007384667F3861068701C20FBE1F90744
:105800000BD010982870C0F3401060F300073846A2
:1058100067F3861068702520EDE1734991F809114E
:1058200051B1C0F3400161F3000028703220E2E181
:105830002670002060733FE5E06900289FD142F2A6
:105840001070E061182005E20E98C0F3C00161F30A
:105850004100C0F3400161F3000028704BF02000CC
:10586000E87080064FF47A6102D55D48603801E047
:105870005B486C3803F020FD2C20EBE1C80705D015
:105880000020607326702F20E07015E50A9800282C
:10589000D1D000206073FEE520F01000C0F30011AD
:1058A00061F3C3002870C0F3C00060F30002AA7067
:1058B0005FEA8B604FF0290542F2107002D501F0CB
:1058C00063FF01E001F02CFF30B3E570A5E1D007E4
:1058D0001CD01398A870BAF1030F01D3E670EBE463
:1058E0000E98C0F3C00161F34100C0F3400161F3C1
:1058F000000028705FEA8B6143F6982002D501F022
:1059000023FF01E001F0D0FE2A20A3E1880701D4A3
:10591000100790D50B98A8704AE0C80703D0002064
:1059200060732F2096E10A98002884D084F80DC077
:1059300028208FE10E98C0F3C00161F34100C0F34D
:10594000400161F3000028705FEA8B6044F620613B
:1059500002D52348363801E02148213803F0ACFC59
:10596000302077E1C80703D000206073262071E162
:105970000A98002873D0002060732D206AE10E98E9
:10598000C0F3C00161F34100C0F3400161F30000C6
:10599000287013484FF4FA61603803F08DFC2E2014
:1059A00058E1C80702D10A98002858D00020607337
:1059B00027204FE17906002920F01100C0F30011E3
:1059C00061F3C3002870C0F3C00060F30002AA7046
:1059D000EEDA4FF47A61044801F0EEFE332039E14B
:1059E000D5F40008BA04002044320020D3071BD0AD
:1059F0001398A870BAF1020F05D39A48E670267082
:105A000080F8096158E40E98C0F3C00161F34100C9
:105A1000C0F3400161F30000287042F21071914818
:105A200001F01EFE342015E1890701D41107E9D5E4
:105A300028700D9820F00200A8708A4880F809614B
:105A40001EE609070CD5002060730E9929702721E6
:105A5000E170854926700E71487108802CE4DCE005
:105A60000A990029CED084F80DC03221E170287047
:105A70000D98A870D1E001F0A3FD3F20E0702670E2
:105A8000287820F00200C0F3400161F30000287084
:105A9000E87820F01000C0F3001161F3C300E87053
:105AA0000AE4C80712D03C20E07026700F981299C3
:105AB000C0F3001262F3C300E87085F800E021F043
:105AC0000800A87041F28830A06161E50A980028BA
:105AD000FBD00D98A870C0F3C00060F3410129709D
:105AE0000BE0CBF3C000CBF30011084307D00F98B5
:105AF000C0F3001161F3C300E8704020AAE0100772
:105B0000E3D50D98A87059484178A9B1002141709A
:105B1000007801F04BFD41F28830A061A87820F0B8
:105B20000800A870287820F00200C0F3400161F35B
:105B3000000028703E208DE04FF4FA614C4803F0DD
:105B4000BBFBA87820F08000A870287820F0020025
:105B5000C0F3400161F3000028703D207AE01999FC
:105B60000029B2D0110601D4402100E03C21E170AF
:105B70002670C0F3400161F30000287008E5199910
:105B80000029A2D03C21E170C0F3400161F3000084
:105B9000287042E02BF0010060F3820220F0100038
:105BA000E870C0F3001060F34512AA704FF47A71E8
:105BB000304803F081FBFBE671466EF34101C1F30F
:105BC000400060F34107297029486F704FF47A71E3
:105BD000923003F071FB3A203CE02EE001E01EE041
:105BE0000BE00399C7F34000084350EA0900C5D011
:105BF0000B98A8702420E0701AE670466EF34100FE
:105C0000C0F3400161F38200287019484FF47A71A3
:105C1000A03003F051FB38201CE02670B8E4C1F33B
:105C200080000399084350EA0900A7D01820E070CB
:105C30000B98A87010982870FAE5C9070CD00F9837
:105C4000C0F3001161F3C300E87085F800E012981A
:105C5000A8703C20E070E0E70A9900298ED02870F7
:105C60004BE700004432002048330020A20400200B
:105C7000E1F4000823F300080A498A69824202D944
:105C8000121A8A6105E0074A2032937843F008032C
:105C90009370CA69824201D9101A00E00020C861DD
:105CA000704700008C04002070B50C46054601F0DA
:105CB00093FB20B922462946074805F0FBFA01F07C
:105CC0008BFB012806D122462946BDE870400348D7
:105CD00005F0F0BA70BD000000560020105A0020F8
:105CE000FBF730BA08B50121082001F0C3FB4FF4DF
:105CF0004070ADF8000003208DF8020014208DF8EC
:105D0000030069460248FEF7CDF906F0A5FA08BD82
:105D1000000C01402DE9F0411D4614460E46074691
:105D200006F084FA384606F057FA06F0A5FA70B97C
:105D3000E0B206F051FA06F09FFA40B906F076FAA2
:105D400047F0010006F048FA06F096FA28B106F08E
:105D500083FA4FF0FF30BDE8F08100246F1E0BE0A6
:105D600006F016FA3055BC4202D006F0D3F901E035
:105D700006F0FAF9641CA4B2AC42F1D306F06CFA56
:105D80000020E8E72DE9F0411D4617460E46804603
:105D900006F062FA5FF0000406F048FA404606F0AA
:105DA0001BFA06F069FA18B1641CA4B2642CF3D390
:105DB000B4F57A7F0DD0F8B206F00EFA06F05CFA70
:105DC00038B900240DE0305D06F006FA06F054FA0A
:105DD00028B106F041FA4FF0FF30BDE8F081641CB5
:105DE000A4B2AC42EFD306F037FA0020F5E700008A
:105DF00006480549016306494163EC2180F82910F2
:105E000004498163002070473325000860060020A4
:105E1000252500085325000838B50121042001F08C
:105E200029FB4FF48054ADF8004010208DF803009A
:105E30000320064D8DF8020069462846FEF732F928
:105E400021462846FEF7BAF938BD00000008014097
:105E5000F8B50121042001F00DFB1024ADF800403D
:105E6000174E8DF8034003258DF8025069463046E1
:105E7000FEF718F910213046FEF7A0F90121102095
:105E800001F0F8FA0220ADF800008DF803400D4C47
:105E90008DF8025069462046FEF704F901211020D2
:105EA00001F0E8FA0420ADF8000048208DF8030066
:105EB0008DF8025069462046FEF7F4F8F8BD000060
:105EC000000801400010014038B50120ADF8000085
:105ED00010208DF803000C4D03248DF80240694614
:105EE0002846FEF7DFF801212846FEF767F9202053
:105EF000ADF8000048208DF803008DF80240694697
:105F00000248FEF7CFF838BD000C01400008014000
:105F100010B5FFF7E7FEEC20FCF7B4FC10B907A0C2
:105F200004F028FA05F0CCFB10F0FF0F01D00AA016
:105F300000E010A0BDE8104004F01CBA0D0A2A2AA7
:105F40002A626D65323830206E6F7420657869730F
:105F5000742121210D0A00000D0A2A2A2A626D658A
:105F600032383020696E6974206661696C212121A4
:105F70000D0A00000D0A2A2A2A626D653238302087
:105F8000696E697420737563636573732121210DD4
:105F90000A0000000E480F490068B0FBF1F0B0F1B4
:105FA000807F13D220F07F414FF0E020491E4161F5
:105FB000094AF02111700021816107220261074A1C
:105FC0001160016921F0010101617047FEE70000E5
:105FD0000004002040420F0023ED00E03C040020BC
:105FE00010B503F019FB03F064FB0121BDE810407C
:105FF000084601F033BA10B503F070FB03F0B2FBB2
:106000000121BDE81040022001F028BA70B5FDF76B
:10601000DDFF0024054625280CD8FEF709F83520B9
:10602000FDF794FF084E08E006EBC420FDF794FF4F
:10603000042801D0002070BD641CAC42F4D3034896
:10604000C660012070BD0000003801083405002042
:1060500030B50021084A0C4601EB410312F82350E9
:10606000854204D102EB83035D7805B15C70491C65
:1060700089B2FF29F0D930BD6C370020FEE700005F
:10608000062806D2C0EBC001044AC1EB80110A44C5
:1060900000E003A2014606A004F06CB98FF10008ED
:1060A0004552524F52205354415455530000000062
:1060B0004553505F4D6573685F5374617475732801
:1060C0002564293A25730D0A0000000010B58623C7
:1060D000002204E0845C521C2344DBB2D2B28A4228
:1060E000F8D3D843401CC0B210BD000001490120C4
:1060F000C870704724050020074910B50020C870FB
:106100004FF480710548FEF757F8BDE81040202194
:106110000348FEF751B8000024050020001001409C
:10612000000C0140F8B50121082001F0A3F920205E
:10613000ADF800001024134F8DF8034003258DF8AF
:10614000025069463846FDF7ADFF0121102001F0ED
:1061500091F92601ADF800608DF803400A4C8DF8E6
:10616000025069462046FDF79DFF31462046FEF766
:1061700025F831462046FEF71FF820213846FEF765
:106180001BF8F8BD000C014000100140F0B51C4C9C
:106190000025E17821B3A178012731B3194E217888
:1061A0007054491CC8B2207007281AD3A570062164
:1061B0003046FFF78BFFB279A6F10901904211D169
:1061C0003078727802EB0020D1F805201044C1F835
:1061D0000500B1F80300401CA1F803008F7002E035
:1061E000A570F0BD8D702570F0BD862802D1617854
:1061F000FF2901D06070F0BDA77025706570F0BDFB
:10620000240500205733002070470000F0B50F210F
:10621000C478027801234FF0E026DCB1124C2468E8
:10622000457804F4E064C4F5E064240AC4F104078A
:10623000E1408478BD400C402C4321010B4C1155AA
:10624000007800F01F018B40400906EB8000C0F889
:106250000031F0BD02F01F008340500906EB8000C2
:10626000C0F88031F0BD00000CED00E000E400E07B
:106270000249084302490860704700000000FA051F
:106280000CED00E0024A11400143024801607047F2
:1062900080FFFF1F08ED00E000B587B014218DF8E6
:1062A0001800ADF800100D48E721ADF802100168A4
:1062B0000191416802910089ADF80C0008A00168C5
:1062C000CDF80E104168CDF812100089ADF8160017
:1062D0001921684600F0BAFF07B000BD8305002011
:1062E00000000000000000000000000010B588B0B1
:1062F0001420ADF800001749E5208022ADF8020017
:10630000ADF81820144B8888ADF81A009C88844298
:1063100006D11B88404202EBC0101844ADF81800AB
:106320000A2008810D4801680191416802910089A5
:10633000ADF80C000AA00168CDF80E104168CDF848
:1063400012100089ADF816001C21684600F07EFF8F
:1063500008B010BD34050020E43300208305002080
:1063600000000000000000000000000010B5104C0C
:10637000208900281BD0401E0004000C208116D16B
:10638000E088002813D0401E0004000CE08006D0F6
:1063900008A003F0EFFFBDE81040FFF7A7BF0AA079
:1063A00003F0E8FF0820FFF777FF0A20E08010BD28
:1063B000340500204F54415F5265715F55705F5244
:1063C00065706561740D0A004F54415F5265715FDD
:1063D00055705F5265706561745F4641494C0D0AA6
:1063E0000000000002490A6842EA80000860704725
:1063F000007000400A4B1A6822F0030202431A6040
:106400000848026842F004020260012905D020BF5A
:10641000016821F004010160704730BFF8E7000017
:106420000070004010ED00E0034A01460020526871
:106430000A4200D001207047007000407047F0B55C
:10644000C1B0044640788DF8010001222678FC2571
:1064500010466946731E1BE027187F78FC2F26D054
:10646000FD2F02D0FE2F0BD105E08F18521C7D703E
:10647000D2B2332704E08F18521C7D70D2B2342779
:1064800001EB020C521C401C8CF80170D2B2C0B25D
:106490008342E1DC8B18A05D521C5870D5B22A46AD
:1064A000491C601CFAF793FE257041B0F0BD8F18AF
:1064B000521C7D70D2B23227E2E70000F0B5C3B0C3
:1064C0000D46074616464FF482716846FAF798FE65
:1064D000002F3BD0FF2D39D8002E37D01C494868FB
:1064E000419088684290ADF806514888ADF80A019D
:1064F000401C48802946384605F0FEFBADF80801EF
:1065000008226C468DF8002041A9601CFAF75FFE56
:10651000002006E09DF80020395C2244401C115404
:1065200080B2A842F6D39DF8001008440849C0B2D2
:106530008DF800000A780DF1010142549DF8000029
:10654000401CC1B28DF80010601CB04743B0F0BDD4
:10655000280500202DE9F0410C4606460121251DA5
:10656000002086B09046FD2E16D0A27882B1FE2E75
:106570001FD0FC2E79D0E178012978D02288511CD7
:10658000218056552188FF2902D92080A070E07013
:10659000002006B0BDE8F081E0702080A1704FF4CB
:1065A0008071201DFAF72CFE2188481C20804E5552
:1065B000EEE7A07021880027481C20804E552088D7
:1065C000251D093886B23648016803A807F01AFD70
:1065D0009DF811009DF813209DF812108DE807001A
:1065E0009DF80F309DF80E205B1C521CBDF80C105E
:1065F0002CA003F0BFFE6888B04212D1314604F1EE
:106600000C0005F079FB0746A888B84209D1E98853
:106610002CA003F0AFFE2188201D424690470120A8
:10662000B7E7A9882CA003F0A5FE39462FA003F0F8
:10663000A1FE698832A003F09DFE314635A003F02B
:1066400099FE39A003F096FE002505E06019017956
:1066500039A003F08FFE6D1C2088A842F6DC1DA037
:1066600003F088FE94E700E001E0E1708AE7322E53
:106670000FD0332E05D0342E05D02080A070E070CE
:1066800080E7FD2306E02188FE234A1C22804B552B
:10669000F5E7FC232288511C21805355EFE70000C9
:1066A000B4050020524543563A2024242025642F67
:1066B00025642F25642D25643A25643A2564202419
:1066C000240D0A005265765F496E746F5F554C3237
:1066D0003A2025640D0A0000554C312D5265765F35
:1066E00043524320203A25640D0A0000554C312DB9
:1066F0004361636C5F435243203A25640D0A0000F6
:10670000554C312D5265765F4C656E20203A2564DC
:106710000D0A0000554C312D63616C635F4C656E52
:10672000203A25640D0A00000D0A526563765F5019
:1067300061636B3A0D0A00002530325820000000DA
:10674000014A0249FFF706BF917200088643002004
:10675000F0B5C3B00D46074616464FF48271684641
:10676000FAF74EFD002F3FD0FF2D3DD8002E3BD035
:106770001E494868419088684290ADF806514888A3
:10678000ADF80A01401C48802946384605F0B4FAA5
:10679000ADF8080108226C468DF8002041A9601C64
:1067A000FAF715FD002006E09DF80020395C224430
:1067B000401C115480B2A842F6D39DF80010084442
:1067C0000A49C0B28DF800000A780DF10101425467
:1067D0009DF80000401C8DF800006846FFF72FFE72
:1067E0009DF80010601CB04743B0F0BD28050020A4
:1067F0002DE9F04100250F1D86B090460C46064657
:10680000FD2811D0A07858B12088FE2E00F101019A
:106810002180C65515D02088FF2801D92580A57074
:10682000002006B0BDE8F08125804FF48071201D66
:10683000FAF7E6FC0120A0702088411C2180C65593
:10684000EEE71048016803A807F0DCFB9DF8110093
:106850009DF813209DF812108DE807009DF80F3069
:106860009DF80E205B1C521CBDF80C1006A003F016
:1068700081FD2188201D424690472580A57001207A
:10688000CFE70000B405002053454E443A202424AD
:106890002025642F25642F25642D25643A25643A2C
:1068A00025642024240D0A0030B50C4687B0054627
:1068B000014618226846FAF78AFCBDF80000142841
:1068C0002CD1183C1835A4B2BDF80210DCA003F09E
:1068D00051FDBDF8021040F21B12A1F21B109142B3
:1068E00076D039DC40F20712A1F20710914270D045
:1068F00023DC40F20112A1F2011091426AD014DCB3
:10690000072968D00CDC042976D0052906D1D0A04F
:1069100003F030FDE1B2284602F038F907B030BD8F
:1069200008296AD0F029F9D15DE00628F6D2DFE81F
:1069300000F003BAC2CAD2DAF0E71428EED2DFE8D8
:1069400000F00AE00A0A0AF8ED0AECEBEAE90AE8C4
:106950000A0A0A0AE7E6E1E740F67C02A0F67C01B3
:1069600090425BD01BDC062876D006DCD6D2DFE86E
:1069700000F003F34DF2F1F0D0E707286DD00828BE
:106980006CD009286BD0A0F500607B38C6D1B4A0CC
:1069900003F0F0FC2146284607F07EF9BEE747F2F7
:1069A0005C72881A91426DD028DC47F26B62A1EBD1
:1069B000020091423AD00FDC012932D0411CADD106
:1069C000ABA003F0D7FCE1B2284601F031F8A5E70F
:1069D000F3E090E05FE043E0012835D0EF289DD15F
:1069E000A8A003F0C7FC00F0CBFC002896D12146FC
:1069F000284600F0F7FE91E720E037E0022838D083
:106A000017286ED018286DD0322887D1A3A003F0A4
:106A1000B1FC2146284601F0C7FF7FE706F096FD4E
:106A20007CE72146284603F093F877E7A3A003F01C
:106A3000A1FCE1B2284601F05DF96FE7A2A003F0E6
:106A400099FC01F0DDFB69E7A1A003F093FC18219C
:106A5000684601F011FB61E7D3E0D8E0DFE0E6E053
:106A6000A1A003F087FC01F043FB57E701F084FB92
:106A700054E700F085FC002890D12146284600F01C
:106A800009FF4BE700F07CFC002887D1214628460F
:106A900000F0B8FE42E799A003F06CFCE1B2284692
:106AA00001F05EFC3AE799A003F064FCE1B22846ED
:106AB00001F03EFD32E799A003F05CFCE1B228460C
:106AC00001F0DEFB2AE799A003F054FCE1B228466E
:106AD00001F0A4FC22E799A003F04CFC01F018F9A6
