:020000040800F2
:100000008029002045010008270E0008ED0B00089C
:10001000250E00088D090008291C000800000000BA
:100020000000000000000000000000003113000884
:10003000450A000800000000A10E0008E1150008B4
:100040005F0100085F0100085F010008B9120008A5
:100050005F0100085F0100085F0100085F01000800
:100060005F0100085F0100085F0100085F010008F0
:100070005F0100085F0100085F0100085F010008E0
:100080005F0100085F0100085F0100085F010008D0
:100090005F0100085F0100085F0100085F010008C0
:1000A0005F0100085F0100085F0100085F010008B0
:1000B000AD160008F91600085F0100085F0100088E
:1000C0005F0100085F0100085F0100085F01000890
:1000D0005F0100085F010008251A0008651A000882
:1000E0005F0100085F0100085F0100085F01000870
:1000F0005F0100085F0100085F0100085F01000860
:100100005F0100085F0100085F0100085F0100084F
:10011000BD1800085F0100085F0100085F010008CA
:100120005F0100085F0100085F0100085F0100082F
:10013000DFF80CD000F030FA004800471526000820
:10014000802900200648804706480047FEE7FEE772
:10015000FEE7FEE7FEE7FEE7FEE7FEE7FEE7FEE777
:10016000E515000831010008D2B201E000F8012BCA
:10017000491EFBD270470022F6E710B513460A4627
:1001800004461946FFF7F0FF204610BD421C10F848
:10019000011B0029FBD1801A704730B50B46014680
:1001A00000202022012409E021FA02F59D4205D316
:1001B00003FA02F5491B04FA02F52844151EA2F1C0
:1001C0000102F1DC30BD2DE9F05F054600209246CA
:1001D0009B4688460646814640241BE02846414609
:1001E0004746224600F0F9F953465A46C01A914153
:1001F00010D311461846224600F0E0F92D1A67EB9D
:1002000001084F4622460120002100F0D7F917EBE4
:1002100000094E41201EA4F10104DFDC48463146AE
:100220002A464346BDE8F09F2DE9FE4F804681EA0D
:100230000300C00F0C46009021F0004123F0004560
:10024000B8EB0200A94105D24046214690461C4623
:100250000B46024623F00040104347D0270DC7F35A
:100260000A00C3F30A510290401A019040286BDA49
:10027000C3F3130040F4801B0098924620B1002382
:10028000D2EB030A63EB0B0B01985946C0F1400215
:10029000504600F093F906460D4650465946019ADD
:1002A00000F0ABF910EB08006141002487EA11521D
:1002B00084EAE7731A4340D0009A62B3019A012A94
:1002C0004FEA075215DC001B61EB02014FF00042C0
:1002D00002EA0752CDE90042001C41F58011324686
:1002E0002B4600F0ABF903B0BDE8F08F4046214645
:1002F000F9E7001B61EB0201001C41F580130018B7
:100300005B412018A2F5001747EB030140EAD570C6
:10031000B6196D4111E06D084FEA360645EAC07521
:100320004FEA0752001B61EB0201001C41F58011EE
:1003300049084FEA30000019514132462B4603B0BC
:10034000BDE8F04F00F06BB9009801224000002397
:10035000D0EB020263EBE073009821464FEAE074B1
:10036000B8EB000061EB0401E9E783F000435BE7D1
:1003700081F0004158E72DE9FE4F81EA030404F0C3
:10038000004421F0004100944FF0000B23F00043A3
:1003900050EA01045ED052EA03045BD0C3F30A546E
:1003A000C1F30A552C44A4F2F3340194A0FB025487
:1003B000C1F3130141F48011C3F3130343F4801319
:1003C00001FB024400FB034E840A970A44EA81546D
:1003D00047EA8357A4FB076802958D0A05FB07854A
:1003E0004FEA932C04FB0C542705029D4FEA065854
:1003F00047EA1637B5EB08056EEB070C870E920E31
:1004000047EA811742EA8312A7FB0201B6EB0B0110
:1004100064EB00042B0D43EA0C335E1844EB1C50D4
:10042000DA465146E7FB0201C5F313044FEA0B33EA
:1004300043EA14534FEA0432019C43EA0603A4F151
:100440000C040294009CCDE900B400F0F7F803B06E
:10045000BDE8F08F00200146F9E72DE9F04D81EA73
:10046000030404F0004B21F0004514464FF0000A4D
:1004700023F0004150EA050220D054EA01021DD0C9
:10048000C5F30A570246C5F31303C1F31300C1F3C2
:100490000A5640F4801543F48013A7EB0608101B9E
:1004A000D64608F2FD3873EB050002D308F10108C7
:1004B00001E092185B41B8F1000F03DA0020014619
:1004C000BDE8F08D00204FF48011064684460EE012
:1004D000171B73EB050705D3121B63EB05030643DC
:1004E0004CEA010C49084FEA300092185B4150EA8F
:1004F0000107EDD152EA030012D082EA040083EA38
:100500000501084305D0101BAB4106D20122002390
:1005100006E000224FF0004302E06FF001025310AA
:100520001AEB06004CEB085110EB0A0041EB0B01F3
:10053000BDE8F04D00F073B8C1F30A52C1F31301E6
:1005400040F2FF3341F480119A4202DA0020014662
:10055000704740F233439A42A2F2334202DC5242E5
:1005600000F03BB800F02AB830B5041E71F1000469
:1005700004DB4FF00044404264EB0101141E73F1B0
:10058000000405DB1C464FF00043524263EB0403BA
:10059000994208BF904230BD064C074D06E0E06826
:1005A00040F0010394E8070098471034AC42F6D3BA
:1005B000FFF7C2FDD0280008F0280008202A04DB3D
:1005C000203A00FA02F1002070479140C2F1200366
:1005D00020FA03F3194390407047202A04DB203AA5
:1005E00021FA02F00021704721FA02F3D040C2F153
:1005F00020029140084319467047202A06DBCB179A
:10060000203A41FA02F043EAE07306E041FA02F3CD
:10061000D040C2F12002914008431946704710B5FE
:10062000141E73F1000408DA401C41F10001921815
:100630005B411A4301D120F0010010BD2DE9F04DBE
:1006400092469B4611B1B1FA81F202E0B0FA80F213
:1006500020329046FFF7B2FF04460F4640EA0A00F8
:1006600041EA0B0153465A46084313D0114653EA58
:10067000010019D0C8F140025046FFF7AEFF054611
:100680000E46504659464246FFF798FF084305D0AC
:10069000012004E020463946BDE8F08D00200543E6
:1006A00046EAE0762C4337430A986305E40AA0EB58
:1006B00008000022FD0A44EA47540A3002D500200F
:1006C0000146E9E7010510196941DDE9084500190E
:1006D0006941BDE8F04DA2E770B58C1810F8015BD8
:1006E00015F0070301D110F8013B2A1106D110F8CB
:1006F000012B03E010F8016B01F8016B5B1EF9D1CF
:100700002B0705D40023521E0DD401F8013BFAE754
:1007100010F8013BCB1A921C03E013F8015B01F8BF
:10072000015B521EF9D5A142D8D3002070BD000054
:1007300003480449427940F6B83000F013BE000087
:1007400020000020F826000805480068410701D075
:10075000800603D441F2883000F024BE70470000C8
:10076000300000202DE9F0410027884605463E462E
:1007700004684DE0287A08B1217D71B3761CF6B289
:1007800018B16168095C2A290AD061680A5C42458F
:1007900038D1618A401C884231D1207CF0B121E0FF
:1007A000A97A0023814203D0A872697A491C697230
:1007B000616801444A78424502D1801C28720123B5
:1007C000D4F80CC0BCF1000F21D06A7A194640461B
:1007D000E04710B1284600F080FD18E02146284689
:1007E00000F06BFDA16809B128468847284600F053
:1007F00074FD6868002818D0BDE8F0410047012763
:10080000277504E018B10020761E2075F6B2246822
:10081000002CAFD117B1287A401C2872002E04D1C9
:100820002846BDE8F04100F058BDBDE8F081000069
:100830002DE9F041044640780E46002530B30128EA
:1008400057D1E07858B1207800EB800056F830108E
:1008500029B1E57056F8301045A001F0E7F920788D
:1008600000EB800006EBC0000069A8B3804798B396
:100870002078616800EB800006EBC0000D606570B9
:10088000A5702178491C2170416949E0207800EB6E
:10089000800056F8301011B139A001F0C7F9207866
:1008A000012700EB800006EBC0004068D8B16770FC
:1008B00060680560207800EB800006EBC000C0682F
:1008C00000B18047207800EB800006EBC000816813
:1008D00019B1204688470BE00DE0226942B1818CB6
:1008E0004068904704E065702570A57060680560F9
:1008F000E770BDE8F081207800EB800006EBC000D7
:10090000806998B1804788B1606805606570A0789B
:10091000401CA070207800EB800006EBC000C1698D
:100920000029E6D02046BDE8F0410847E068C8B19C
:100930008047B8B160680560A078401CC0B2A07064
:100940006570217801EB810106EBC101C98C8842F9
:1009500001D3A5702570207800EB800006EBC00065
:10096000016ADDE7A0680028C3D0BDE8F041004778
:100970005B53545D3A25735F576169740D0A00003B
:100980005B53545D3A25730D0A000000FEE700003A
:10099000034951F8200008B100207047012070473A
:1009A000000E00200248016841F0200101607047FC
:1009B0002C0000200248016841F0040101607047EA
:1009C0002C0000200248016841F0100101607047CE
:1009D0002C0000200248016841F0080101607047C6
:1009E0002C0000200248016841F0010101607047BD
:1009F0002C0000200248016841F0020101607047AC
:100A00002C0000200248016841F400410160704759
:100A10002C0000200248016841F400310160704759
:100A20002C0000200248016841F400510160704729
:100A30002C0000200248016841F4803101607047B9
:100A40002C000020704700000248016821F00701D7
:100A50000160704730000020054A11680B0701D57E
:100A6000092300E00A23037081F00800106070473A
:100A70003000002004490978490701D0142100E022
:100A80000A21017070470000300000200E21017023
:100A900070470000142101700248016821F0200114
:100AA0000160704730000020142101700348016884
:100AB00021F00701491C0160704700003000002050
:100AC00004490978490701D0142100E00B21017085
:100AD00070470000300000201421017003480168B5
:100AE00021F00701491C0160704700003000002020
:100AF000142101700248016821F020010160704753
:100B0000300000200F21017070470000F0B5CA7856
:100B1000002502F00F03D20601D58A7813430A7824
:100B20004FF00F0E12F0FF0F4FF001021CD00468BF
:100B30000F8802FA05F63740B74211D14FEA850C0B
:100B40000EFA0CF724EA070703FA0CF43C43CF78BB
:100B5000282F02D0482F02D002E0466100E0066153
:100B60006D1C082DE4D304600C88FF2C1ED944684A
:100B70005FF0000606F1080702FA07F50F882F401C
:100B8000AF420FD14FEA860C0EFA0CF7BC4303FAC2
:100B90000CF73C43CF78282F00D14561CF78482F00
:100BA00000D10561761C082EE4D34460F0BD41619C
:100BB0007047016170470000034901200870002060
:100BC0000C3108607047000020000020064A916840
:100BD000814202D9081A9060704703480C300168BE
:100BE00041F080010160704720000020704730B55F
:100BF0000028039D09D00024047044708470416073
:100C000001B10C60083080E82C0030BD70B5074E93
:100C1000002400BF04EB440006EBC0056868FFF742
:100C2000B5FA641C68820B2CF4D370BD340000202C
:100C3000F8B50121202000F0EBFA0420ADF8000007
:100C40001024164E8DF8034003258DF80250694696
:100C50003046FFF75BFF04213046FFF7A8FF01F0A5
:100C6000F9FC04213046FFF7A4FF01F0F3FC042156
:100C70003046FFF79CFF01F0EDFC0220ADF80000CC
:100C80008DF803408DF8025069463046FFF73EFF6D
:100C900002213046FFF78BFFF8BD00000014014031
:100CA00010B500F0C7FC00F012FD0121BDE81040B6
:100CB000084600F0A1BA000008B5FFF77DFF06481E
:100CC0000090064B002206490648FFF790FFBDE85A
:100CD0000840FFF79BBF000035130008150E000801
:100CE0002C00002068110020026800232AB901604E
:100CF00000E011600B607047024610680028FBD1CD
:100D0000F7E7000007480068C10708D0400706D58C
:100D100004480C380079072801D9012070470020C9
:100D2000704700002C00002004480068C10703D071
:100D3000000501D501207047002070472C000020DD
:100D400005480068C10705D0C10503D5400501D598
:100D500001207047002070472C00002004480068E4
:100D6000C10703D0800601D50120704700207047DD
:100D70002C00002004480068C10703D0800701D57B
:100D800001207047002070472C00002004480068B4
:100D9000C10703D0C00601D501207047002070476D
:100DA0002C0000200248007800F00100704700008D
:100DB0002C00002004480068C10703D0000701D5BB
:100DC00001207047002070472C0000200448006874
:100DD000C10703D0800401D501207047002070476F
:100DE0002C00002004480068C10703D0000401D58E
:100DF00001207047002070472C0000200448006844
:100E0000810603D5400701D00120704700207047BC
:100E10003000002002480078C0F3C0107047000086
:100E20002C000020FEE7704770B50F23C4780178CE
:100E30000122F4B1144C2468457804F4E064C4F54C
:100E4000E064240AC4F10406E3408478B5401C4001
:100E50002C4301F1E021230181F80034007800F0F7
:100E60001F018A404009800000F1E020C0F8002105
:100E700070BD01F01F0082404809800000F1E020B1
:100E8000C0F8802170BD00000CED00E0024908436D
:100E900002490860704700000000FA050CED00E010
:100EA0007047000070B50F4B00241D6805EB8506E8
:100EB00000EB46003038012A02D0022A0AD007E0AF
:100EC00011B10948057106E01860632808D91C6053
:100ED000012070BD09B11C6002E018600728F6D837
:100EE000002070BD461000202000002010B5012A0F
:100EF00017D10E4A0024136851B10D4813B10B2BC2
:100F000002D003E0012100E00221C17014600AE078
:100F100003EB830100EB410030381060632802D9F5
:100F20001460012010BD002010BD000046100020FC
:100F30002000002070B50E461649174C002549794F
:100F40002368012A02D0022A0FD110E046B18B4259
:100F500001D0184606E025606560A560257417E09D
:100F600030382060092813D92560012070BD3EB1BA
:100F700025601A4609A0E36000F058FE206805E0ED
:100F800003EB830100EB4100303820606328EBD88D
:100F9000002070BD20000020461000205B4552520A
:100FA0005D3A536F636B65745F4572722025643AD6
:100FB0002025640D0A00000010B5012A25D1154A2C
:100FC00000241368C1B11448012B016806D0022B1C
:100FD00007D0042B0AD0052B06D10AE041F480711A
:100FE00001E041F400710160146010E041F480619F
:100FF000F9E741F40061F6E703EB830100EB410000
:1010000030381060092802D91460012010BD00207A
:1010100010BD0000461000202C00002070B50E46C8
:101020001649174C002549792368012A02D0022A63
:101030000FD110E046B18B4201D0184606E0256082
:101040006560A560257417E030382060092813D941
:101050002560012070BD3EB1C4E900531A4609A0C5
:1010600000F0E4FD206805E003EB830100EB4100A4
:10107000303820606328EBD8002070BD20000020AD
:10108000461000205B444154415D3A536F636B65E9
:10109000745F53454E442025643A2025640D0A00B0
:1010A00010B5012A10D10A4A0024136819B1094861
:1010B000437114600AE003EB830100EB4100303818
:1010C0001060092802D91460012010BD002010BD55
:1010D000461000202000002070B52F4C0E46002541
:1010E0002168A0F13003012A04D0022A10D0032A7B
:1010F00050D11FE03EB12948407981424AD1256054
:101100006560A56043E02360092B41D9256041E07B
:1011100036B1C4E9005122A000F088FD206805E046
:1011200001EB810100EB410030382060B0F57A7F9F
:10113000ECD22DE01849D1E901212EB1914203D121
:101140001EA000F073FD23E0914203D922A000F01D
:101150006DFD1FE0491CA160CA0702D1227C12016B
:101160002274092B02D8207C18440DE0A0F1610202
:10117000052A02D8227C573805E0A0F14102052A51
:1011800008D8227C373810442074C80700D1257451
:10119000002070BD012070BD4610002020000020FE
:1011A0005B444154415D3A536F636B65745F5263B6
:1011B000765F4C656E3A2025640D0A000D0A5B448B
:1011C0004154415D3A536F636B65745F5263763A85
:1011D000205355430D0A00000D0A5B444154415D04
:1011E0003A536F636B65745F5263763A204552528F
:1011F0005F4C454E0D0A0000044A0029D16901D018
:10120000014300E08143D1617047000000100240BB
:10121000044A0029916901D0014300E081439161B2
:10122000704700000010024030B51F494A6812F0B4
:101230000C031E4A03D0042B01D0082B21D00260DE
:101240004A680F231A4C03EA1212A35C0268DA40C0
:1012500042604B68072505EA1323E35C22FA03F397
:1012600083604B6805EAD323E35CDA40C2604968D7
:10127000032303EA9131231F595CB2FBF1F10161B1
:1012800030BD4A684B6802F470124FF0020413F448
:10129000803F04EB924202D04B689B0301D5054B83
:1012A00000E0024B5A43CAE70010024000127A00E5
:1012B0000400002000093D00704702688A4209D1FD
:1012C0001168016070471068884202D100681060A0
:1012D00070470246002AF6D1704700220168027268
:1012E0004272827201E00A7509680029FBD17047D9
:1012F00008B50A490A48FFF79BFA6946094801F010
:1013000015F9002809D19DF8001007A000F08EFC07
:101310009DF800100548FFF725FA08BD3C010020A4
:1013200068110020B0040020256300005C1000203C
:101330007047000070B50D4604460146054800F0B0
:1013400057FC214604A000F071FC2846BDE870401F
:1013500000F028B8004C00405B434D445D3A2573D3
:101360000D0A00000FB410B5044604AA08480399FA
:1013700000F06CFC0649074800F03AFC044906A05E
:1013800000F054FC204600F00DF810BC5DF814FB92
:1013900068100020004C00405B434D445D3A2573CB
:1013A0000D0A00000249886000200C310860704777
:1013B0002000002010B505490548FFF795FC0349BA
:1013C000BDE8104018310248FFF78EBC3400002001
:1013D0005C100020084910B5002008600648074945
:1013E0001630FFF781FC054903483031BDE8104055
:1013F0001630FFF779BC00004610002034000020B2
:1014000010B505490548FFF76FFC0349BDE81040DA
:10141000F0310248FFF768BC340000205C10002067
:1014200001490248FFF760BC340000205C10002036
:10143000084910B500200860064807491630FFF734
:1014400053FC054903487831BDE810401630FFF7DA
:101450004BBC00004610002034000020084910B5A5
:1014600000200860064807491630FFF73DFC054993
:1014700003486031BDE810401630FFF735BC00006E
:10148000461000203400002001490248FFF72CBC20
:10149000340000205C100020084910B500200860CE
:1014A000064807491630FFF71FFC05490348483135
:1014B000BDE810401630FFF717BC000046100020B2
:1014C000340000200E4810B5016821F007010160CA
:1014D0000C49002008600A490A48091D1630FFF728
:1014E00003FC0749074894311630FFF7FDFB044918
:1014F0000448AC31BDE810401630FFF7F5BB0000E2
:10150000300000204610002010B505490548FFF7BF
:10151000EBFB0349BDE81040D8310248FFF7E4BBBC
:10152000340000205C1000200CB5002126480191F9
:101530000091026842F4803202604FF4A0630268B6
:1015400002F400320092019A521C0192009A12B9E0
:10155000019A9A42F3D10268920333D50121009196
:101560001A490A6842F010020A600A6822F003026F
:101570000A600A6842F002020A60416841604168FC
:101580004160416841F480614160416821F47C110F
:101590004160416841F4E8114160016841F08071A7
:1015A000016001688901FCD5416821F003014160B7
:1015B000416841F0020141604168C1F381010229A3
:1015C000FAD10CBD00910CBD001002400020024079
:1015D00003B5024A009842F821000CBD000E00201D
:1015E00000F014B90F4810B5016841F00101016025
:1015F00041680D4A1140416001680C4A1140016088
:10160000016821F480210160416821F4FE014160FC
:101610004FF41F018160FFF787FF05494FF000601D
:10162000086010BD001002400000FFF8FFFFF6FE4A
:1016300008ED00E03EB501210846FFF7DDFD4FF45F
:101640007A70ADF804004720ADF800000020ADF836
:101650000600ADF802004FF080446946204600F0D5
:1016600087F80121204600F05FF80122114620464C
:1016700000F076F80121204600F05CF800210120FE
:10168000FFF7BAFD3EBD00000749002051F82020B9
:1016900022B151F82020521E41F82020401CC0B237
:1016A0000428F3D370470000000E002010B501217C
:1016B0008C07204600F048F8002807D0FFF7E4FF29
:1016C0002046BDE81040012100F031B810BD08B53A
:1016D0004FF4A060FFF7DAFB1C208DF80000022019
:1016E0008DF801008DF8020001208DF80300684696
:1016F000FFF79AFB08BD000010B5094C01212046F8
:1017000000F022F8002809D006494868401C4860CB
:101710002046BDE81040012100F009B810BD0000CE
:101720000004004014000020C94301827047C943EF
:10173000018270470029018802D041F0010101E0D7
:1017400021F001010180704702460020138A92892E
:101750000B4202EA010202D0002A00D001207047A9
:10176000002A828901D00A4300E08A4382817047BF
:1017700030B502881B4B1C4C98420DD0A0420BD0B8
:10178000B0F1804F08D0194DA84205D0184DA8429D
:1017900002D0184DA84203D122F070054A882A438E
:1017A000154DA84206D0154DA84203D022F440752D
:1017B000CA882A4302808A8882850A8802859842DC
:1017C0000AD0A04208D00E4A904205D00D4A90425D
:1017D00002D00D4A904201D1097A0186012181820D
:1017E00030BD0000002C01400034014000040040E6
:1017F00000080040000C00400010004000140040B1
:101800000040014000440140004801400348016895
:10181000002902D00168491E016070471C000020A9
:1018200010B5012186B0C804FFF7E6FC01211020A5
:10183000FFF7EEFC4FF48060ADF8100018208DF833
:10184000130003201B4C8DF8120004A92046FFF75B
:101850005DF9E014ADF8100004208DF8130004A920
:101860002046FFF753F94FF4E13000900020ADF827
:101870000400ADF80600ADF80800ADF80C000C202F
:101880000D4CADF80A006946204600F053F90122DC
:1018900040F22551204600F035F9012240F2244162
:1018A000204600F02FF90121204600F0FBF806B099
:1018B00010BD000000100140004C004010B50D4C60
:1018C00040F22551204600F0FEF830B1204600F0ED
:1018D00087F9C1B2084800F04BFE40F2244120468F
:1018E00000F0F1F8012804D12046BDE8104000F0D6
:1018F00077B910BD004C0040B004002008B54FF48B
:10190000A060FFF7C3FA34208DF8000002208DF8A4
:1019100001008DF8020001208DF803006846FFF7F2
:1019200083FA08BD10B5FFF77BFFFFF7E7FF00F074
:101930001BF8BDE8104000F061B82DE9F0411546F4
:101940000E46074600240BE0315D384600F04CF9A6
:101950008021384600F0B0F80028F9D0641CA4B209
:10196000AC42F1D3BDE8F08110B586B0012144F25C
:101970000400FFF74DFC4FF40070ADF81000182084
:101980008DF8130003201B4C8DF8120004A920468B
:10199000FFF7BCF82015ADF8100004208DF81300F7
:1019A00004A92046FFF7B2F84FF4E1300090002080
:1019B000ADF80400ADF80600ADF80800ADF80C0075
:1019C0000C200D4CADF80A006946204600F0B2F834
:1019D000012240F22551204600F094F8012240F205
:1019E0002441204600F08EF80121204600F05AF8EC
:1019F00006B010BD000801400038014008B54FF4A2
:101A0000A060FFF743FA25208DF8000003208DF831
:101A100001008DF8020001208DF803006846FFF7F1
:101A200003FA08BD10B50D4C40F22551204600F0D8
:101A30004AF830B1204600F0D3F8C1B2084800F0AF
:101A400097FD40F22441204600F03DF8012804D1E2
:101A50002046BDE8104000F0C3B810BD004400406F
:101A6000C008002010B50D4C40F22551204600F072
:101A70002AF830B1204600F0B3F8C1B2084800F0AF
:101A800077FD40F22441204600F01DF8012804D1E2
:101A90002046BDE8104000F0A3B810BD004800404B
:101AA000E00C00200029818902D041F4005101E0BE
:101AB00021F40051818170470246002012880A42B9
:101AC00000D00120704730B501F01F02012400252D
:101AD000C1F3421304FA02F2012B0FD0022B0FD0F4
:101AE000838A4FEA11210088134204FA01F400EAC4
:101AF000040001D000B10125284630BD8389F0E7FC
:101B0000038AEEE710B5C1F3421301F01F0401216F
:101B1000A140012B07D0022B07D01430002A026805
:101B200005D00A4304E00C30F8E71030F6E78A43AA
:101B3000026010BD30B50446008A85B00D464CF6F3
:101B4000FF710840E98801432182A1894EF6F31014
:101B50000140A8882A8910436A890A431043A0815A
:101B6000A08A4FF6FF410840A9890143A182684637
:101B7000FFF75AFB1948844201D1039800E002980C
:101B8000A189090400EBC00101EB0010296801D50F
:101B9000490000E08900B0FBF1F06422B0FBF2F1F3
:101BA00009010B096FF018056B4300EB8300A38953
:101BB0001D044FF0320306D503EBC000B0FBF2F07A
:101BC00000F0070005E003EB0010B0FBF2F000F0BE
:101BD0000F000843208105B030BD000000380140EF
:101BE0008088C0F308007047C1F308018180704706
:101BF0000FB44FF4007110B5ADF5007D0446684692
:101C0000FEF7B9FA84AA6846839900F01FF868467F
:101C1000FEF7BCFA82B269462046FFF78EFE0DF54C
:101C2000007D10BC5DF814FBFEE700000FB4054B0F
:101C300010B503A9044A029800F0DCF810BC5DF866
:101C400014FB000099250008AC04002037B51446A9
:101C50000846064B6A46214600F0CCF80446694621
:101C6000002000F05EFC20463EBD00002325000859
:101C700002E008C8121F08C1002AFAD17047704755
:101C8000002001E001C1121F002AFBD170470000B3
:101C90002DE9FF5FDDE90220010DDDF838B00243D8
:101CA00018D044F61050A1F2FF3141430D140F98A3
:101CB000012820D0A5EB0B00401C5FEA000A4FF082
:101CC0000004474EDFF81C91A046504616D5CAF1D5
:101CD000000728E00F98012443A2012808D0002122
:101CE00000980F9BC0E90021C0E90243BDE8FF9FB7
:101CF0006FEA0B01F4E7CBF10000DEE7074612E0E4
:101D0000F80707D02246334640464946FEF733FBE4
:101D1000804689462246334610461946FEF72BFB7D
:101D200004460E467F10002FEAD1DDE90201BAF128
:101D3000000F42464B4602DAFEF71DFB01E0FEF7BC
:101D40008CFB04460E460022284BFEF70DFC03D800
:101D50004FF0FF30014607E00022254B2046314678
:101D6000FEF762FAFEF7E8FB102409E0002C0ADB1C
:101D70000A220023FEF727FA019B30321A55641E0F
:101D800050EA0102F2D1641C019AC4F11103144417
:101D90000F9A012A03D0012208430DD10AE008431B
:101DA00004D000204FF0110B0F9080E7A3EB0B0540
:101DB0006D1E0DE05B4504DD4FF0000205F10105ED
:101DC00004E003DA4FF00002A5F10105002AECD08F
:101DD00000980F99C0E90231C0E9004586E700008C
:101DE000000024400000F03F300000000000F043FD
:101DF0000000E03F2DE9FF4F95B09B46894606461F
:101E000000250FE2252877D100242746F84A012132
:101E1000059400E0044316F8013F203B01FA03F06B
:101E20001042F7D130782A2811D06FF02F03307884
:101E3000A0F13002092A16D8059A44F0020402EBF8
:101E4000820203EB42021044761C0590EFE759F83A
:101E5000042B0592002A03DA504244F40054059002
:101E600044F00204761C30782E2816D116F8010FA3
:101E700044F004042A280DD06FF02F023078A0F12E
:101E80003003092B09D807EB870302EB4303C7187C
:101E9000761CF3E759F8047B761C30786C280FD059
:101EA00006DC4C2817D068280DD06A2814D104E02D
:101EB000742810D07A280FD10DE044F400140AE001
:101EC00044F4801401E044F440147278824202D158
:101ED00004F58014761C761C307866280BD013DC51
:101EE000582877D009DC002875D04528F6D0462838
:101EF000F4D047281AD19DE118E0632835D0642832
:101F000079D0652812D195E1702873D008DC672854
:101F1000F1D069286FD06E280DD06F2806D1B5E0BA
:101F200073282CD0752875D0782874D05A46179904
:101F300090476D1C75E1C4F30250022809D00328B4
:101F40000DD0D9F8001004280DD00D6009F1040956
:101F500067E1D9F80010EA17C1E90052F6E7D9F8AD
:101F600000100D80F2E70D70F0E719F8041B8DF8F2
:101F7000001000208DF80100EA46012003E059F826
:101F800004AB4FF0FF3061074FF0000102D40DE0C9
:101F900008F101018846B9420FDA8045F8DB1AF8EA
:101FA00008100029F4D108E008F1010188468142B7
:101FB000FADB1AF808100029F6D105985B46A0EB69
:101FC000080721463846179A00F094FA284400EB97
:101FD000080507E04DE029E10DE01AF8010B5A462B
:101FE00017999047B8F10108F7D25B462146384669
:101FF000179A13E142E00A220092C4F302524FF012
:10200000000A022A08D059F804CB032A4FEAEC71DF
:102010000AD00DE029E02AE009F1070121F00702CA
:10202000F2E802C1914609E00FFA8CFC4FEAEC712C
:10203000042A03D14FFA8CFC4FEAEC71002907DA2D
:102040000A460021DCF1000C61EB02012D2202E0C6
:10205000220504D52B228DF80420012203E0E2079B
:1020600001D02022F7E7904659E00A2102E0102231
:102070000DE010214FF0000A00910BE010224FF00C
:10208000000A44F004040827009203E008224FF0FD
:10209000000A0092C4F30252022A05D059F804CB78
:1020A0000021032A08D009E009F1070121F0070205
:1020B000F2E802C1914605E01FFA8CFC042A01D126
:1020C0000CF0FF0C4FF00008220728D5702806D02E
:1020D000009B83F0100353EA0A0305D00EE0402270
:1020E0008DF80420012208E05CEA010206D03022CB
:1020F0008DF804208DF8050002229046009B83F0A5
:10210000080353EA0A030AD15CEA010201D162071B
:1021100005D530228DF804204FF001087F1E582885
:1021200004D034A003900EA802900DE036A0F9E789
:1021300053466046009AFEF746F884460398825C50
:102140000298401E029002705CEA0100F0D10298F1
:1021500006A9081A00F1200A600702D524F4803489
:1021600000E00127574502DDA7EB0A0000E0002050
:1021700000EB0A01009005984144401A0590E003E5
:1021800006D45B462146179A059800F0B3F905443A
:10219000002706E001A85A46C05D179990476D1CBC
:1021A0007F1C4745F6DBE0030CD55B462146179ABA
:1021B000059800F09FF9054404E030205A4617992D
:1021C00090476D1C0099481E00900029F5DC08E03E
:1021D000029802995A460078491C02911799904733
:1021E0006D1CBAF10001AAF1010AF1DC65E1000001
:1021F00009280100303132333435363738396162DD
:1022000063646566000000003031323334353637A0
:1022100038394142434445460000000000F058F977
:102220000544761C307800287FF4ECAD19B02846C0
:10223000BDE8F08F620700D4062709F1070222F0FB
:10224000070CFCE80223E14603F000485FEA080CB3
:1022500002D00FF2702C0DE05FEA045C02D50FF2A1
:10226000682C07E05FEAC47C02D00FF2602C01E02A
:10227000AFF2700C4FF0FF3823F00043CDF850C0A0
:1022800065280CD006DC452809D046281DD04728F3
:102290003DD13DE0662818D067287ED138E0002186
:1022A000112F01DB112000E0781CCDE9000106A907
:1022B0000EA8FFF7EDFCDDE90F010E9A0391002156
:1022C000009207F1010A04914DE04FF000400097A1
:1022D000CDE9011006A90EA8FFF7DAFCDDE90F022F
:1022E00003920E9B11990022DDF80CA0009304923A
:1022F00011B9791C00EB010AB7EB0A0004D4C0F154
:10230000FF3007F1010A0490AAEB0700019044E0B6
:10231000012F00DA01270021112F01DD112000E03B
:102320003846CDE9000106A90EA8FFF7B1FCDDE9AA
:102330000F010E9A0391002104910092BA462107E1
:102340000CD40399514500DA8A46BAF1010F05DD34
:10235000009AAAF10101515C302908D0B84202DA92
:1023600010F1040F06DA0121CDE9011015E0AAF100
:102370000101E9E7002805DC049901440491AAEB76
:10238000000102E0411C514500DD8A460499401AD3
:10239000401C01904FF000400290200704D40198A7
:1023A000504501DBCDF8048000208DF84F000298E5
:1023B0000DF14F07B0F1004F25D02B200E90029861
:1023C0004FF0020800280CDA404202902D200E90B7
:1023D00007E00A210298FDF7E0FE3031029007F88D
:1023E000011DB8F10001A8F10108F2DC02980028F3
:1023F000EFD1791E0E980870307800F0200040F080
:10240000450007F8020D12A8C01B00F10708149838
:10241000007800B1012000EB0A01019801EBE071A6
:1024200005984144401A401E0590E00306D45B46DF
:102430002146179A059800F05DF805441498007835
:1024400018B15A46179990476D1CE00324D55B4696
:102450002146179A059800F04DF805441CE00498B1
:10246000002807DBDDE90301884203DD0098405CBA
:10247000179901E0179930205A469047049805F1C2
:102480000105401C04900198401E019004D12E20AB
:102490005A46179990476D1CBAF10001AAF1010A3A
:1024A000DDDC05E017F8010B5A46179990476D1CC3
:1024B000B8F10001A8F10108F4DC5B462146179A47
:1024C0000598ABE62D0000002B0000002000000066
:1024D0002DE9F041044600251E461746880404D421
:1024E00005E039462020B0476D1C641EF9D528460A
:1024F000BDE8F0812DE9F041044600251E469046D6
:10250000C80301D5302700E02027880404D505E062
:1025100041463846B0476D1C641EF9D52846BDE8D3
:10252000F0810A68531C0B6010707047C2688368A2
:102530009A4201D101207047826883881A4003685B
:102540009A5C0A708168491C8160828811408160B0
:102550000020704719B112B1531E134201D001205F
:1025600070470160838000218160C1600846704728
:10257000C2688368521C9A4201D101207047C26828
:1025800083881A4003689954C168491CC1608288D5
:102590001140C1600020704770B5074D0446C1B2BC
:1025A0002846FFF721FB80212846FFF785FA0028FF
:1025B000F9D0204670BD00000038014010B5114927
:1025C0004FF400742246A1F11000FFF7C3FF0E493B
:1025D0002246A1F11000FFF7BDFF0C498022A1F1B6
:1025E0001000FFF7B7FF094980229031A1F11000D8
:1025F000FFF7B0FF62000649BDE81040A1F11000EE
:10260000FFF7A8BFD0080020E00A0020F00C00204F
:10261000C004002008B5FEF743FBFEF709FBFFF7F7
:10262000CDFFFEF749FBFFF77DF969460848FFF744
:102630007DFFFEF75DFE0220FEF7AAF90028F4D028
:102640006420FEF7C3FA02216420FEF7C1FFECE725
:10265000700D002002490020401C8842FCD37047C6
:102660008096980041542B4350494E3F0D0A00413B
:10267000542B4353510D0A0041542B4347524547B5
:102680003F0D0A0041542B43474143543F0D0A007C
:1026900041542B434F50533F0D0A0041542B4347A5
:1026A000434F4E545244500D0A0041542B434D3277
:1026B0004D434C494E45573D223138302E31303153
:1026C0002E3134372E313135222C22353638332213
:1026D0002C223131313232323333333434343722F5
:1026E0002C3130300D0A0041542B434D324D434CB8
:1026F0004953454E443D220041542B43534F434FD1
:102700004E3D25642C383039372C223132352E3766
:10271000312E3233362E323435220D0A003000414C
:10272000542B43534F53454E44464C41473D310D86
:102730000A0041542B43534F433D312C312C310D72
:102740000A0000002B43534F433A202A0D0A000091
:102750002B434D324D434C493A202A0D0A000000CC
:1027600053454E443A202A2C2A0D0A002B4353513C
:102770003A202A2C2A0D0A002B43534F4552523A35
:10278000202A2C2A0D0A00002B43534F4E4D493A64
:10279000202A2C2A2C2A0D0A000000002B43475225
:1027A00045473A20302C310D0A0000002B434741A9
:1027B00043543A20312C310D0A0000002B434F5076
:1027C000533A20302C322C223436302A222C390D28
:1027D0000A0000004F4B0D0A000000002B43504937
:1027E0004E3A2052454144590D0A000041542B43B2
:1027F00046554E3D310D0A0041542B434349440D8B
:102800000A00000041542B43494D490D0A000000C5
:1028100041542B4347534E0D0A00000041540D0A0A
:10282000000000004154453026570D0A000000000A
:102830004154453126570D0A0000000041545A0DFD
:102840000A00000041545F534F53454E44000000BE
:1028500041545F43534F53454E44464C414700005B
:1028600041545F534F434F4E0000000041545F53AB
:102870004F4352454154000041545F436C695365D6
:102880006E64000041545F475265670041545F50D9
:10289000696E000041545F47636F6E74726470002C
:1028A00041545F437371000041545F436F70730084
:1028B00041545F53746174757300000041545F4765
:1028C0004163740041545F436C696E4E657700004C
:1028D000F028000800000020B0040000D80600081E
:1028E000702A0008B0040020D0240000801C0008DA
:1028F00045020406082D0102030404052406070806
:102900000913D4271408E509393CC11ADC180A1147
:10291000F5181A6C181AB518CBA50E1C1A9C180AB3
:1029200011D5301AAC180A11C5181ABC181AA518F6
:10293000DAED481A441813250ACC08A110181A8891
:10294000181A35181AD918B2011A78181A1518CB8E
:10295000350F301A60181A0518DA1D481A50184138
:102960001AB930A9484B1C28181B8914980A100D55
:10297000B054E803030A253C280A2530285AF89069
:10298000091E280A2504500A2510280A2524280A89
:1029900021ECA01A8C4C4B64261C13B5130B1508A4
:1029A00075281AA0285A6F281AD5281A0528CB7519
:1029B0000A2C14E803141A84285A78281A99781AC9
:1029C000B5280A11C1281ABC285A84281A5D280A79
:1029D000158D781AA8285A90281A31280A155D28CA
:1029E0001A94285A9B2869F0FA8D7812031AC42881
:1029F0005AAA281A01281A4128DAA928143075037E
:102A00001A782813100E42201A21281A29289A957C
:102A1000281A490C14401F051A5028CB1F2778018B
:102A20001014B80B031A6C285A32281AC5280A1138
:102A3000CD28141027031A60281AF8A01331076A4A
:102A40000850DAD9A029509A44A01309151B08E5AB
:102A5000280A11F1C81AB0281A1D781A4950411ACB
:102A6000FD288B050B281A5934042D881303000008
:0400000508000131BD
:00000001FF
